{
	"practice/web3/CTFS/captureTheEther/math/FiftyYears/contracts/FiftyYears.sol": {
		"FiftyYearsChallenge": {
			"abi": [
				{
					"constant": false,
					"inputs": [
						{
							"name": "index",
							"type": "uint256"
						}
					],
					"name": "withdraw",
					"outputs": [],
					"payable": false,
					"stateMutability": "nonpayable",
					"type": "function"
				},
				{
					"constant": false,
					"inputs": [
						{
							"name": "index",
							"type": "uint256"
						},
						{
							"name": "timestamp",
							"type": "uint256"
						}
					],
					"name": "upsert",
					"outputs": [],
					"payable": true,
					"stateMutability": "payable",
					"type": "function"
				},
				{
					"constant": true,
					"inputs": [],
					"name": "owner",
					"outputs": [
						{
							"name": "",
							"type": "address"
						}
					],
					"payable": false,
					"stateMutability": "view",
					"type": "function"
				},
				{
					"constant": true,
					"inputs": [],
					"name": "head",
					"outputs": [
						{
							"name": "",
							"type": "uint256"
						}
					],
					"payable": false,
					"stateMutability": "view",
					"type": "function"
				},
				{
					"constant": true,
					"inputs": [],
					"name": "isComplete",
					"outputs": [
						{
							"name": "",
							"type": "bool"
						}
					],
					"payable": false,
					"stateMutability": "view",
					"type": "function"
				},
				{
					"constant": true,
					"inputs": [
						{
							"name": "",
							"type": "uint256"
						}
					],
					"name": "queue",
					"outputs": [
						{
							"name": "amount",
							"type": "uint256"
						},
						{
							"name": "unlockTimestamp",
							"type": "uint256"
						}
					],
					"payable": false,
					"stateMutability": "view",
					"type": "function"
				},
				{
					"inputs": [
						{
							"name": "player",
							"type": "address"
						}
					],
					"payable": true,
					"stateMutability": "payable",
					"type": "constructor"
				}
			],
			"devdoc": {
				"methods": {}
			},
			"evm": {
				"assembly": "    /* \"practice/web3/CTFS/captureTheEther/math/FiftyYears/contracts/FiftyYears.sol\":26:2082  contract FiftyYearsChallenge {... */\n  mstore(0x40, 0x80)\n    /* \"practice/web3/CTFS/captureTheEther/math/FiftyYears/contracts/FiftyYears.sol\":235:427  function FiftyYearsChallenge(address player) public payable {... */\n  mload(0x40)\n  0x20\n  dup1\n  bytecodeSize\n  dup4\n  codecopy\n  dup2\n  add\n  dup1\n  0x40\n  mstore\n  dup2\n  add\n  swap1\n  dup1\n  dup1\n  mload\n  swap1\n  0x20\n  add\n  swap1\n  swap3\n  swap2\n  swap1\n  pop\n  pop\n  pop\n    /* \"practice/web3/CTFS/captureTheEther/math/FiftyYears/contracts/FiftyYears.sol\":326:333  1 ether */\n  0xde0b6b3a7640000\n    /* \"practice/web3/CTFS/captureTheEther/math/FiftyYears/contracts/FiftyYears.sol\":313:322  msg.value */\n  callvalue\n    /* \"practice/web3/CTFS/captureTheEther/math/FiftyYears/contracts/FiftyYears.sol\":313:333  msg.value == 1 ether */\n  eq\n    /* \"practice/web3/CTFS/captureTheEther/math/FiftyYears/contracts/FiftyYears.sol\":305:334  require(msg.value == 1 ether) */\n  iszero\n  iszero\n  tag_3\n  jumpi\n  0x0\n  dup1\n  revert\ntag_3:\n    /* \"practice/web3/CTFS/captureTheEther/math/FiftyYears/contracts/FiftyYears.sol\":353:359  player */\n  dup1\n    /* \"practice/web3/CTFS/captureTheEther/math/FiftyYears/contracts/FiftyYears.sol\":345:350  owner */\n  0x2\n  0x0\n    /* \"practice/web3/CTFS/captureTheEther/math/FiftyYears/contracts/FiftyYears.sol\":345:359  owner = player */\n  0x100\n  exp\n  dup2\n  sload\n  dup2\n  0xffffffffffffffffffffffffffffffffffffffff\n  mul\n  not\n  and\n  swap1\n  dup4\n  0xffffffffffffffffffffffffffffffffffffffff\n  and\n  mul\n  or\n  swap1\n  sstore\n  pop\n    /* \"practice/web3/CTFS/captureTheEther/math/FiftyYears/contracts/FiftyYears.sol\":369:374  queue */\n  0x0\n    /* \"practice/web3/CTFS/captureTheEther/math/FiftyYears/contracts/FiftyYears.sol\":380:419  Contribution(msg.value, now + 50 years) */\n  0x40\n  dup1\n  mload\n  swap1\n  dup2\n  add\n  0x40\n  mstore\n  dup1\n    /* \"practice/web3/CTFS/captureTheEther/math/FiftyYears/contracts/FiftyYears.sol\":393:402  msg.value */\n  callvalue\n    /* \"practice/web3/CTFS/captureTheEther/math/FiftyYears/contracts/FiftyYears.sol\":380:419  Contribution(msg.value, now + 50 years) */\n  dup2\n  mstore\n  0x20\n  add\n    /* \"practice/web3/CTFS/captureTheEther/math/FiftyYears/contracts/FiftyYears.sol\":410:418  50 years */\n  0x5dfc0f00\n    /* \"practice/web3/CTFS/captureTheEther/math/FiftyYears/contracts/FiftyYears.sol\":404:407  now */\n  timestamp\n    /* \"practice/web3/CTFS/captureTheEther/math/FiftyYears/contracts/FiftyYears.sol\":404:418  now + 50 years */\n  add\n    /* \"practice/web3/CTFS/captureTheEther/math/FiftyYears/contracts/FiftyYears.sol\":380:419  Contribution(msg.value, now + 50 years) */\n  dup2\n  mstore\n  pop\n    /* \"practice/web3/CTFS/captureTheEther/math/FiftyYears/contracts/FiftyYears.sol\":369:420  queue.push(Contribution(msg.value, now + 50 years)) */\n  swap1\n  dup1\n    /* \"--CODEGEN--\":39:40   */\n  0x1\n    /* \"--CODEGEN--\":33:36   */\n  dup2\n    /* \"--CODEGEN--\":27:37   */\n  sload\n    /* \"--CODEGEN--\":23:41   */\n  add\n    /* \"--CODEGEN--\":57:67   */\n  dup1\n    /* \"--CODEGEN--\":52:55   */\n  dup3\n    /* \"--CODEGEN--\":45:68   */\n  sstore\n    /* \"--CODEGEN--\":79:89   */\n  dup1\n    /* \"--CODEGEN--\":72:89   */\n  swap2\n  pop\n    /* \"--CODEGEN--\":0:93   */\n  pop\n    /* \"practice/web3/CTFS/captureTheEther/math/FiftyYears/contracts/FiftyYears.sol\":369:420  queue.push(Contribution(msg.value, now + 50 years)) */\n  swap1\n  0x1\n  dup3\n  sub\n  swap1\n  0x0\n  mstore\n  keccak256(0x0, 0x20)\n  swap1\n  0x2\n  mul\n  add\n  0x0\n  swap1\n  swap2\n  swap3\n  swap1\n  swap2\n  swap1\n  swap2\n  pop\n  0x0\n  dup3\n  add\n  mload\n  dup2\n  0x0\n  add\n  sstore\n  0x20\n  dup3\n  add\n  mload\n  dup2\n  0x1\n  add\n  sstore\n  pop\n  pop\n  pop\n    /* \"practice/web3/CTFS/captureTheEther/math/FiftyYears/contracts/FiftyYears.sol\":235:427  function FiftyYearsChallenge(address player) public payable {... */\n  pop\n    /* \"practice/web3/CTFS/captureTheEther/math/FiftyYears/contracts/FiftyYears.sol\":26:2082  contract FiftyYearsChallenge {... */\n  dataSize(sub_0)\n  dup1\n  dataOffset(sub_0)\n  0x0\n  codecopy\n  0x0\n  return\nstop\n\nsub_0: assembly {\n        /* \"practice/web3/CTFS/captureTheEther/math/FiftyYears/contracts/FiftyYears.sol\":26:2082  contract FiftyYearsChallenge {... */\n      mstore(0x40, 0x80)\n      jumpi(tag_1, lt(calldatasize, 0x4))\n      calldataload(0x0)\n      0x100000000000000000000000000000000000000000000000000000000\n      swap1\n      div\n      0xffffffff\n      and\n      dup1\n      0x2e1a7d4d\n      eq\n      tag_2\n      jumpi\n      dup1\n      0x3b8f718a\n      eq\n      tag_3\n      jumpi\n      dup1\n      0x8da5cb5b\n      eq\n      tag_4\n      jumpi\n      dup1\n      0x8f7dcfa3\n      eq\n      tag_5\n      jumpi\n      dup1\n      0xb2fa1c9e\n      eq\n      tag_6\n      jumpi\n      dup1\n      0xddf0b009\n      eq\n      tag_7\n      jumpi\n    tag_1:\n      0x0\n      dup1\n      revert\n        /* \"practice/web3/CTFS/captureTheEther/math/FiftyYears/contracts/FiftyYears.sol\":1513:2080  function withdraw(uint256 index) public {... */\n    tag_2:\n      callvalue\n        /* \"--CODEGEN--\":8:17   */\n      dup1\n        /* \"--CODEGEN--\":5:7   */\n      iszero\n      tag_8\n      jumpi\n        /* \"--CODEGEN--\":30:31   */\n      0x0\n        /* \"--CODEGEN--\":27:28   */\n      dup1\n        /* \"--CODEGEN--\":20:32   */\n      revert\n        /* \"--CODEGEN--\":5:7   */\n    tag_8:\n        /* \"practice/web3/CTFS/captureTheEther/math/FiftyYears/contracts/FiftyYears.sol\":1513:2080  function withdraw(uint256 index) public {... */\n      pop\n      tag_9\n      0x4\n      dup1\n      calldatasize\n      sub\n      dup2\n      add\n      swap1\n      dup1\n      dup1\n      calldataload\n      swap1\n      0x20\n      add\n      swap1\n      swap3\n      swap2\n      swap1\n      pop\n      pop\n      pop\n      jump(tag_10)\n    tag_9:\n      stop\n        /* \"practice/web3/CTFS/captureTheEther/math/FiftyYears/contracts/FiftyYears.sol\":538:1507  function upsert(uint256 index, uint256 timestamp) public payable {... */\n    tag_3:\n      tag_11\n      0x4\n      dup1\n      calldatasize\n      sub\n      dup2\n      add\n      swap1\n      dup1\n      dup1\n      calldataload\n      swap1\n      0x20\n      add\n      swap1\n      swap3\n      swap2\n      swap1\n      dup1\n      calldataload\n      swap1\n      0x20\n      add\n      swap1\n      swap3\n      swap2\n      swap1\n      pop\n      pop\n      pop\n      jump(tag_12)\n    tag_11:\n      stop\n        /* \"practice/web3/CTFS/captureTheEther/math/FiftyYears/contracts/FiftyYears.sol\":209:229  address public owner */\n    tag_4:\n      callvalue\n        /* \"--CODEGEN--\":8:17   */\n      dup1\n        /* \"--CODEGEN--\":5:7   */\n      iszero\n      tag_13\n      jumpi\n        /* \"--CODEGEN--\":30:31   */\n      0x0\n        /* \"--CODEGEN--\":27:28   */\n      dup1\n        /* \"--CODEGEN--\":20:32   */\n      revert\n        /* \"--CODEGEN--\":5:7   */\n    tag_13:\n        /* \"practice/web3/CTFS/captureTheEther/math/FiftyYears/contracts/FiftyYears.sol\":209:229  address public owner */\n      pop\n      tag_14\n      jump(tag_15)\n    tag_14:\n      mload(0x40)\n      dup1\n      dup3\n      0xffffffffffffffffffffffffffffffffffffffff\n      and\n      0xffffffffffffffffffffffffffffffffffffffff\n      and\n      dup2\n      mstore\n      0x20\n      add\n      swap2\n      pop\n      pop\n      mload(0x40)\n      dup1\n      swap2\n      sub\n      swap1\n      return\n        /* \"practice/web3/CTFS/captureTheEther/math/FiftyYears/contracts/FiftyYears.sol\":183:202  uint256 public head */\n    tag_5:\n      callvalue\n        /* \"--CODEGEN--\":8:17   */\n      dup1\n        /* \"--CODEGEN--\":5:7   */\n      iszero\n      tag_16\n      jumpi\n        /* \"--CODEGEN--\":30:31   */\n      0x0\n        /* \"--CODEGEN--\":27:28   */\n      dup1\n        /* \"--CODEGEN--\":20:32   */\n      revert\n        /* \"--CODEGEN--\":5:7   */\n    tag_16:\n        /* \"practice/web3/CTFS/captureTheEther/math/FiftyYears/contracts/FiftyYears.sol\":183:202  uint256 public head */\n      pop\n      tag_17\n      jump(tag_18)\n    tag_17:\n      mload(0x40)\n      dup1\n      dup3\n      dup2\n      mstore\n      0x20\n      add\n      swap2\n      pop\n      pop\n      mload(0x40)\n      dup1\n      swap2\n      sub\n      swap1\n      return\n        /* \"practice/web3/CTFS/captureTheEther/math/FiftyYears/contracts/FiftyYears.sol\":433:532  function isComplete() public view returns (bool) {... */\n    tag_6:\n      callvalue\n        /* \"--CODEGEN--\":8:17   */\n      dup1\n        /* \"--CODEGEN--\":5:7   */\n      iszero\n      tag_19\n      jumpi\n        /* \"--CODEGEN--\":30:31   */\n      0x0\n        /* \"--CODEGEN--\":27:28   */\n      dup1\n        /* \"--CODEGEN--\":20:32   */\n      revert\n        /* \"--CODEGEN--\":5:7   */\n    tag_19:\n        /* \"practice/web3/CTFS/captureTheEther/math/FiftyYears/contracts/FiftyYears.sol\":433:532  function isComplete() public view returns (bool) {... */\n      pop\n      tag_20\n      jump(tag_21)\n    tag_20:\n      mload(0x40)\n      dup1\n      dup3\n      iszero\n      iszero\n      iszero\n      iszero\n      dup2\n      mstore\n      0x20\n      add\n      swap2\n      pop\n      pop\n      mload(0x40)\n      dup1\n      swap2\n      sub\n      swap1\n      return\n        /* \"practice/web3/CTFS/captureTheEther/math/FiftyYears/contracts/FiftyYears.sol\":150:177  Contribution[] public queue */\n    tag_7:\n      callvalue\n        /* \"--CODEGEN--\":8:17   */\n      dup1\n        /* \"--CODEGEN--\":5:7   */\n      iszero\n      tag_22\n      jumpi\n        /* \"--CODEGEN--\":30:31   */\n      0x0\n        /* \"--CODEGEN--\":27:28   */\n      dup1\n        /* \"--CODEGEN--\":20:32   */\n      revert\n        /* \"--CODEGEN--\":5:7   */\n    tag_22:\n        /* \"practice/web3/CTFS/captureTheEther/math/FiftyYears/contracts/FiftyYears.sol\":150:177  Contribution[] public queue */\n      pop\n      tag_23\n      0x4\n      dup1\n      calldatasize\n      sub\n      dup2\n      add\n      swap1\n      dup1\n      dup1\n      calldataload\n      swap1\n      0x20\n      add\n      swap1\n      swap3\n      swap2\n      swap1\n      pop\n      pop\n      pop\n      jump(tag_24)\n    tag_23:\n      mload(0x40)\n      dup1\n      dup4\n      dup2\n      mstore\n      0x20\n      add\n      dup3\n      dup2\n      mstore\n      0x20\n      add\n      swap3\n      pop\n      pop\n      pop\n      mload(0x40)\n      dup1\n      swap2\n      sub\n      swap1\n      return\n        /* \"practice/web3/CTFS/captureTheEther/math/FiftyYears/contracts/FiftyYears.sol\":1513:2080  function withdraw(uint256 index) public {... */\n    tag_10:\n        /* \"practice/web3/CTFS/captureTheEther/math/FiftyYears/contracts/FiftyYears.sol\":1712:1725  uint256 total */\n      0x0\n        /* \"practice/web3/CTFS/captureTheEther/math/FiftyYears/contracts/FiftyYears.sol\":1744:1753  uint256 i */\n      dup1\n        /* \"practice/web3/CTFS/captureTheEther/math/FiftyYears/contracts/FiftyYears.sol\":1585:1590  owner */\n      0x2\n      0x0\n      swap1\n      sload\n      swap1\n      0x100\n      exp\n      swap1\n      div\n      0xffffffffffffffffffffffffffffffffffffffff\n      and\n        /* \"practice/web3/CTFS/captureTheEther/math/FiftyYears/contracts/FiftyYears.sol\":1571:1590  msg.sender == owner */\n      0xffffffffffffffffffffffffffffffffffffffff\n      and\n        /* \"practice/web3/CTFS/captureTheEther/math/FiftyYears/contracts/FiftyYears.sol\":1571:1581  msg.sender */\n      caller\n        /* \"practice/web3/CTFS/captureTheEther/math/FiftyYears/contracts/FiftyYears.sol\":1571:1590  msg.sender == owner */\n      0xffffffffffffffffffffffffffffffffffffffff\n      and\n      eq\n        /* \"practice/web3/CTFS/captureTheEther/math/FiftyYears/contracts/FiftyYears.sol\":1563:1591  require(msg.sender == owner) */\n      iszero\n      iszero\n      tag_26\n      jumpi\n      0x0\n      dup1\n      revert\n    tag_26:\n        /* \"practice/web3/CTFS/captureTheEther/math/FiftyYears/contracts/FiftyYears.sol\":1616:1621  queue */\n      0x0\n        /* \"practice/web3/CTFS/captureTheEther/math/FiftyYears/contracts/FiftyYears.sol\":1622:1627  index */\n      dup4\n        /* \"practice/web3/CTFS/captureTheEther/math/FiftyYears/contracts/FiftyYears.sol\":1616:1628  queue[index] */\n      dup2\n      sload\n      dup2\n      lt\n      iszero\n      iszero\n      tag_27\n      jumpi\n      invalid\n    tag_27:\n      swap1\n      0x0\n      mstore\n      keccak256(0x0, 0x20)\n      swap1\n      0x2\n      mul\n      add\n        /* \"practice/web3/CTFS/captureTheEther/math/FiftyYears/contracts/FiftyYears.sol\":1616:1644  queue[index].unlockTimestamp */\n      0x1\n      add\n      sload\n        /* \"practice/web3/CTFS/captureTheEther/math/FiftyYears/contracts/FiftyYears.sol\":1609:1612  now */\n      timestamp\n        /* \"practice/web3/CTFS/captureTheEther/math/FiftyYears/contracts/FiftyYears.sol\":1609:1644  now >= queue[index].unlockTimestamp */\n      lt\n      iszero\n        /* \"practice/web3/CTFS/captureTheEther/math/FiftyYears/contracts/FiftyYears.sol\":1601:1645  require(now >= queue[index].unlockTimestamp) */\n      iszero\n      iszero\n      tag_29\n      jumpi\n      0x0\n      dup1\n      revert\n    tag_29:\n        /* \"practice/web3/CTFS/captureTheEther/math/FiftyYears/contracts/FiftyYears.sol\":1728:1729  0 */\n      0x0\n        /* \"practice/web3/CTFS/captureTheEther/math/FiftyYears/contracts/FiftyYears.sol\":1712:1729  uint256 total = 0 */\n      swap2\n      pop\n        /* \"practice/web3/CTFS/captureTheEther/math/FiftyYears/contracts/FiftyYears.sol\":1756:1760  head */\n      sload(0x1)\n        /* \"practice/web3/CTFS/captureTheEther/math/FiftyYears/contracts/FiftyYears.sol\":1744:1760  uint256 i = head */\n      swap1\n      pop\n        /* \"practice/web3/CTFS/captureTheEther/math/FiftyYears/contracts/FiftyYears.sol\":1739:1890  for (uint256 i = head; i <= index; i++) {... */\n    tag_30:\n        /* \"practice/web3/CTFS/captureTheEther/math/FiftyYears/contracts/FiftyYears.sol\":1767:1772  index */\n      dup3\n        /* \"practice/web3/CTFS/captureTheEther/math/FiftyYears/contracts/FiftyYears.sol\":1762:1763  i */\n      dup2\n        /* \"practice/web3/CTFS/captureTheEther/math/FiftyYears/contracts/FiftyYears.sol\":1762:1772  i <= index */\n      gt\n      iszero\n        /* \"practice/web3/CTFS/captureTheEther/math/FiftyYears/contracts/FiftyYears.sol\":1739:1890  for (uint256 i = head; i <= index; i++) {... */\n      iszero\n      tag_31\n      jumpi\n        /* \"practice/web3/CTFS/captureTheEther/math/FiftyYears/contracts/FiftyYears.sol\":1802:1807  queue */\n      0x0\n        /* \"practice/web3/CTFS/captureTheEther/math/FiftyYears/contracts/FiftyYears.sol\":1808:1809  i */\n      dup2\n        /* \"practice/web3/CTFS/captureTheEther/math/FiftyYears/contracts/FiftyYears.sol\":1802:1810  queue[i] */\n      dup2\n      sload\n      dup2\n      lt\n      iszero\n      iszero\n      tag_33\n      jumpi\n      invalid\n    tag_33:\n      swap1\n      0x0\n      mstore\n      keccak256(0x0, 0x20)\n      swap1\n      0x2\n      mul\n      add\n        /* \"practice/web3/CTFS/captureTheEther/math/FiftyYears/contracts/FiftyYears.sol\":1802:1817  queue[i].amount */\n      0x0\n      add\n      sload\n        /* \"practice/web3/CTFS/captureTheEther/math/FiftyYears/contracts/FiftyYears.sol\":1793:1817  total += queue[i].amount */\n      dup3\n      add\n      swap2\n      pop\n        /* \"practice/web3/CTFS/captureTheEther/math/FiftyYears/contracts/FiftyYears.sol\":1871:1876  queue */\n      0x0\n        /* \"practice/web3/CTFS/captureTheEther/math/FiftyYears/contracts/FiftyYears.sol\":1877:1878  i */\n      dup2\n        /* \"practice/web3/CTFS/captureTheEther/math/FiftyYears/contracts/FiftyYears.sol\":1871:1879  queue[i] */\n      dup2\n      sload\n      dup2\n      lt\n      iszero\n      iszero\n      tag_35\n      jumpi\n      invalid\n    tag_35:\n      swap1\n      0x0\n      mstore\n      keccak256(0x0, 0x20)\n      swap1\n      0x2\n      mul\n      add\n      0x0\n        /* \"practice/web3/CTFS/captureTheEther/math/FiftyYears/contracts/FiftyYears.sol\":1864:1879  delete queue[i] */\n      dup1\n      dup3\n      add\n      0x0\n      swap1\n      sstore\n      0x1\n      dup3\n      add\n      0x0\n      swap1\n      sstore\n      pop\n      pop\n        /* \"practice/web3/CTFS/captureTheEther/math/FiftyYears/contracts/FiftyYears.sol\":1774:1777  i++ */\n      dup1\n      dup1\n      0x1\n      add\n      swap2\n      pop\n      pop\n        /* \"practice/web3/CTFS/captureTheEther/math/FiftyYears/contracts/FiftyYears.sol\":1739:1890  for (uint256 i = head; i <= index; i++) {... */\n      jump(tag_30)\n    tag_31:\n        /* \"practice/web3/CTFS/captureTheEther/math/FiftyYears/contracts/FiftyYears.sol\":2035:2036  1 */\n      0x1\n        /* \"practice/web3/CTFS/captureTheEther/math/FiftyYears/contracts/FiftyYears.sol\":2027:2032  index */\n      dup4\n        /* \"practice/web3/CTFS/captureTheEther/math/FiftyYears/contracts/FiftyYears.sol\":2027:2036  index + 1 */\n      add\n        /* \"practice/web3/CTFS/captureTheEther/math/FiftyYears/contracts/FiftyYears.sol\":2020:2024  head */\n      0x1\n        /* \"practice/web3/CTFS/captureTheEther/math/FiftyYears/contracts/FiftyYears.sol\":2020:2036  head = index + 1 */\n      dup2\n      swap1\n      sstore\n      pop\n        /* \"practice/web3/CTFS/captureTheEther/math/FiftyYears/contracts/FiftyYears.sol\":2047:2057  msg.sender */\n      caller\n        /* \"practice/web3/CTFS/captureTheEther/math/FiftyYears/contracts/FiftyYears.sol\":2047:2066  msg.sender.transfer */\n      0xffffffffffffffffffffffffffffffffffffffff\n      and\n        /* \"practice/web3/CTFS/captureTheEther/math/FiftyYears/contracts/FiftyYears.sol\":2047:2073  msg.sender.transfer(total) */\n      0x8fc\n        /* \"practice/web3/CTFS/captureTheEther/math/FiftyYears/contracts/FiftyYears.sol\":2067:2072  total */\n      dup4\n        /* \"practice/web3/CTFS/captureTheEther/math/FiftyYears/contracts/FiftyYears.sol\":2047:2073  msg.sender.transfer(total) */\n      swap1\n      dup2\n      iszero\n      mul\n      swap1\n      mload(0x40)\n      0x0\n      mload(0x40)\n      dup1\n      dup4\n      sub\n      dup2\n      dup6\n      dup9\n      dup9\n      call\n      swap4\n      pop\n      pop\n      pop\n      pop\n      iszero\n        /* \"--CODEGEN--\":8:17   */\n      dup1\n        /* \"--CODEGEN--\":5:7   */\n      iszero\n      tag_37\n      jumpi\n        /* \"--CODEGEN--\":45:61   */\n      returndatasize\n        /* \"--CODEGEN--\":42:43   */\n      0x0\n        /* \"--CODEGEN--\":39:40   */\n      dup1\n        /* \"--CODEGEN--\":24:62   */\n      returndatacopy\n        /* \"--CODEGEN--\":77:93   */\n      returndatasize\n        /* \"--CODEGEN--\":74:75   */\n      0x0\n        /* \"--CODEGEN--\":67:94   */\n      revert\n        /* \"--CODEGEN--\":5:7   */\n    tag_37:\n        /* \"practice/web3/CTFS/captureTheEther/math/FiftyYears/contracts/FiftyYears.sol\":2047:2073  msg.sender.transfer(total) */\n      pop\n        /* \"practice/web3/CTFS/captureTheEther/math/FiftyYears/contracts/FiftyYears.sol\":1513:2080  function withdraw(uint256 index) public {... */\n      pop\n      pop\n      pop\n      jump\t// out\n        /* \"practice/web3/CTFS/captureTheEther/math/FiftyYears/contracts/FiftyYears.sol\":538:1507  function upsert(uint256 index, uint256 timestamp) public payable {... */\n    tag_12:\n        /* \"practice/web3/CTFS/captureTheEther/math/FiftyYears/contracts/FiftyYears.sol\":788:821  Contribution storage contribution */\n      0x0\n        /* \"practice/web3/CTFS/captureTheEther/math/FiftyYears/contracts/FiftyYears.sol\":635:640  owner */\n      0x2\n      0x0\n      swap1\n      sload\n      swap1\n      0x100\n      exp\n      swap1\n      div\n      0xffffffffffffffffffffffffffffffffffffffff\n      and\n        /* \"practice/web3/CTFS/captureTheEther/math/FiftyYears/contracts/FiftyYears.sol\":621:640  msg.sender == owner */\n      0xffffffffffffffffffffffffffffffffffffffff\n      and\n        /* \"practice/web3/CTFS/captureTheEther/math/FiftyYears/contracts/FiftyYears.sol\":621:631  msg.sender */\n      caller\n        /* \"practice/web3/CTFS/captureTheEther/math/FiftyYears/contracts/FiftyYears.sol\":621:640  msg.sender == owner */\n      0xffffffffffffffffffffffffffffffffffffffff\n      and\n      eq\n        /* \"practice/web3/CTFS/captureTheEther/math/FiftyYears/contracts/FiftyYears.sol\":613:641  require(msg.sender == owner) */\n      iszero\n      iszero\n      tag_39\n      jumpi\n      0x0\n      dup1\n      revert\n    tag_39:\n        /* \"practice/web3/CTFS/captureTheEther/math/FiftyYears/contracts/FiftyYears.sol\":665:669  head */\n      sload(0x1)\n        /* \"practice/web3/CTFS/captureTheEther/math/FiftyYears/contracts/FiftyYears.sol\":656:661  index */\n      dup4\n        /* \"practice/web3/CTFS/captureTheEther/math/FiftyYears/contracts/FiftyYears.sol\":656:669  index >= head */\n      lt\n      iszero\n        /* \"practice/web3/CTFS/captureTheEther/math/FiftyYears/contracts/FiftyYears.sol\":656:693  index >= head && index < queue.length */\n      dup1\n      iszero\n      tag_40\n      jumpi\n      pop\n        /* \"practice/web3/CTFS/captureTheEther/math/FiftyYears/contracts/FiftyYears.sol\":681:686  queue */\n      0x0\n        /* \"practice/web3/CTFS/captureTheEther/math/FiftyYears/contracts/FiftyYears.sol\":681:693  queue.length */\n      dup1\n      sload\n      swap1\n      pop\n        /* \"practice/web3/CTFS/captureTheEther/math/FiftyYears/contracts/FiftyYears.sol\":673:678  index */\n      dup4\n        /* \"practice/web3/CTFS/captureTheEther/math/FiftyYears/contracts/FiftyYears.sol\":673:693  index < queue.length */\n      lt\n        /* \"practice/web3/CTFS/captureTheEther/math/FiftyYears/contracts/FiftyYears.sol\":656:693  index >= head && index < queue.length */\n    tag_40:\n        /* \"practice/web3/CTFS/captureTheEther/math/FiftyYears/contracts/FiftyYears.sol\":652:1501  if (index >= head && index < queue.length) {... */\n      iszero\n      tag_41\n      jumpi\n        /* \"practice/web3/CTFS/captureTheEther/math/FiftyYears/contracts/FiftyYears.sol\":824:829  queue */\n      0x0\n        /* \"practice/web3/CTFS/captureTheEther/math/FiftyYears/contracts/FiftyYears.sol\":830:835  index */\n      dup4\n        /* \"practice/web3/CTFS/captureTheEther/math/FiftyYears/contracts/FiftyYears.sol\":824:836  queue[index] */\n      dup2\n      sload\n      dup2\n      lt\n      iszero\n      iszero\n      tag_42\n      jumpi\n      invalid\n    tag_42:\n      swap1\n      0x0\n      mstore\n      keccak256(0x0, 0x20)\n      swap1\n      0x2\n      mul\n      add\n        /* \"practice/web3/CTFS/captureTheEther/math/FiftyYears/contracts/FiftyYears.sol\":788:836  Contribution storage contribution = queue[index] */\n      swap1\n      pop\n        /* \"practice/web3/CTFS/captureTheEther/math/FiftyYears/contracts/FiftyYears.sol\":873:882  msg.value */\n      callvalue\n        /* \"practice/web3/CTFS/captureTheEther/math/FiftyYears/contracts/FiftyYears.sol\":850:862  contribution */\n      dup2\n        /* \"practice/web3/CTFS/captureTheEther/math/FiftyYears/contracts/FiftyYears.sol\":850:869  contribution.amount */\n      0x0\n      add\n      0x0\n        /* \"practice/web3/CTFS/captureTheEther/math/FiftyYears/contracts/FiftyYears.sol\":850:882  contribution.amount += msg.value */\n      dup3\n      dup3\n      sload\n      add\n      swap3\n      pop\n      pop\n      dup2\n      swap1\n      sstore\n      pop\n        /* \"practice/web3/CTFS/captureTheEther/math/FiftyYears/contracts/FiftyYears.sol\":652:1501  if (index >= head && index < queue.length) {... */\n      jump(tag_44)\n    tag_41:\n        /* \"practice/web3/CTFS/captureTheEther/math/FiftyYears/contracts/FiftyYears.sol\":1110:1116  1 days */\n      0x15180\n        /* \"practice/web3/CTFS/captureTheEther/math/FiftyYears/contracts/FiftyYears.sol\":1068:1073  queue */\n      0x0\n        /* \"practice/web3/CTFS/captureTheEther/math/FiftyYears/contracts/FiftyYears.sol\":1089:1090  1 */\n      0x1\n        /* \"practice/web3/CTFS/captureTheEther/math/FiftyYears/contracts/FiftyYears.sol\":1074:1079  queue */\n      0x0\n        /* \"practice/web3/CTFS/captureTheEther/math/FiftyYears/contracts/FiftyYears.sol\":1074:1086  queue.length */\n      dup1\n      sload\n      swap1\n      pop\n        /* \"practice/web3/CTFS/captureTheEther/math/FiftyYears/contracts/FiftyYears.sol\":1074:1090  queue.length - 1 */\n      sub\n        /* \"practice/web3/CTFS/captureTheEther/math/FiftyYears/contracts/FiftyYears.sol\":1068:1091  queue[queue.length - 1] */\n      dup2\n      sload\n      dup2\n      lt\n      iszero\n      iszero\n      tag_45\n      jumpi\n      invalid\n    tag_45:\n      swap1\n      0x0\n      mstore\n      keccak256(0x0, 0x20)\n      swap1\n      0x2\n      mul\n      add\n        /* \"practice/web3/CTFS/captureTheEther/math/FiftyYears/contracts/FiftyYears.sol\":1068:1107  queue[queue.length - 1].unlockTimestamp */\n      0x1\n      add\n      sload\n        /* \"practice/web3/CTFS/captureTheEther/math/FiftyYears/contracts/FiftyYears.sol\":1068:1116  queue[queue.length - 1].unlockTimestamp + 1 days */\n      add\n        /* \"practice/web3/CTFS/captureTheEther/math/FiftyYears/contracts/FiftyYears.sol\":1055:1064  timestamp */\n      dup3\n        /* \"practice/web3/CTFS/captureTheEther/math/FiftyYears/contracts/FiftyYears.sol\":1055:1116  timestamp >= queue[queue.length - 1].unlockTimestamp + 1 days */\n      lt\n      iszero\n        /* \"practice/web3/CTFS/captureTheEther/math/FiftyYears/contracts/FiftyYears.sol\":1047:1117  require(timestamp >= queue[queue.length - 1].unlockTimestamp + 1 days) */\n      iszero\n      iszero\n      tag_47\n      jumpi\n      0x0\n      dup1\n      revert\n    tag_47:\n        /* \"practice/web3/CTFS/captureTheEther/math/FiftyYears/contracts/FiftyYears.sol\":1154:1163  msg.value */\n      callvalue\n        /* \"practice/web3/CTFS/captureTheEther/math/FiftyYears/contracts/FiftyYears.sol\":1132:1144  contribution */\n      dup2\n        /* \"practice/web3/CTFS/captureTheEther/math/FiftyYears/contracts/FiftyYears.sol\":1132:1151  contribution.amount */\n      0x0\n      add\n        /* \"practice/web3/CTFS/captureTheEther/math/FiftyYears/contracts/FiftyYears.sol\":1132:1163  contribution.amount = msg.value */\n      dup2\n      swap1\n      sstore\n      pop\n        /* \"practice/web3/CTFS/captureTheEther/math/FiftyYears/contracts/FiftyYears.sol\":1241:1250  timestamp */\n      dup2\n        /* \"practice/web3/CTFS/captureTheEther/math/FiftyYears/contracts/FiftyYears.sol\":1210:1222  contribution */\n      dup2\n        /* \"practice/web3/CTFS/captureTheEther/math/FiftyYears/contracts/FiftyYears.sol\":1210:1238  contribution.unlockTimestamp */\n      0x1\n      add\n        /* \"practice/web3/CTFS/captureTheEther/math/FiftyYears/contracts/FiftyYears.sol\":1210:1250  contribution.unlockTimestamp = timestamp */\n      dup2\n      swap1\n      sstore\n      pop\n        /* \"practice/web3/CTFS/captureTheEther/math/FiftyYears/contracts/FiftyYears.sol\":1466:1471  queue */\n      0x0\n        /* \"practice/web3/CTFS/captureTheEther/math/FiftyYears/contracts/FiftyYears.sol\":1477:1489  contribution */\n      dup2\n        /* \"practice/web3/CTFS/captureTheEther/math/FiftyYears/contracts/FiftyYears.sol\":1466:1490  queue.push(contribution) */\n      swap1\n      dup1\n        /* \"--CODEGEN--\":39:40   */\n      0x1\n        /* \"--CODEGEN--\":33:36   */\n      dup2\n        /* \"--CODEGEN--\":27:37   */\n      sload\n        /* \"--CODEGEN--\":23:41   */\n      add\n        /* \"--CODEGEN--\":57:67   */\n      dup1\n        /* \"--CODEGEN--\":52:55   */\n      dup3\n        /* \"--CODEGEN--\":45:68   */\n      sstore\n        /* \"--CODEGEN--\":79:89   */\n      dup1\n        /* \"--CODEGEN--\":72:89   */\n      swap2\n      pop\n        /* \"--CODEGEN--\":0:93   */\n      pop\n        /* \"practice/web3/CTFS/captureTheEther/math/FiftyYears/contracts/FiftyYears.sol\":1466:1490  queue.push(contribution) */\n      swap1\n      0x1\n      dup3\n      sub\n      swap1\n      0x0\n      mstore\n      keccak256(0x0, 0x20)\n      swap1\n      0x2\n      mul\n      add\n      0x0\n      swap1\n      swap2\n      swap3\n      swap1\n      swap2\n      swap1\n      swap2\n      pop\n      0x0\n      dup3\n      add\n      sload\n      dup2\n      0x0\n      add\n      sstore\n      0x1\n      dup3\n      add\n      sload\n      dup2\n      0x1\n      add\n      sstore\n      pop\n      pop\n      pop\n        /* \"practice/web3/CTFS/captureTheEther/math/FiftyYears/contracts/FiftyYears.sol\":652:1501  if (index >= head && index < queue.length) {... */\n    tag_44:\n        /* \"practice/web3/CTFS/captureTheEther/math/FiftyYears/contracts/FiftyYears.sol\":538:1507  function upsert(uint256 index, uint256 timestamp) public payable {... */\n      pop\n      pop\n      pop\n      jump\t// out\n        /* \"practice/web3/CTFS/captureTheEther/math/FiftyYears/contracts/FiftyYears.sol\":209:229  address public owner */\n    tag_15:\n      0x2\n      0x0\n      swap1\n      sload\n      swap1\n      0x100\n      exp\n      swap1\n      div\n      0xffffffffffffffffffffffffffffffffffffffff\n      and\n      dup2\n      jump\t// out\n        /* \"practice/web3/CTFS/captureTheEther/math/FiftyYears/contracts/FiftyYears.sol\":183:202  uint256 public head */\n    tag_18:\n      sload(0x1)\n      dup2\n      jump\t// out\n        /* \"practice/web3/CTFS/captureTheEther/math/FiftyYears/contracts/FiftyYears.sol\":433:532  function isComplete() public view returns (bool) {... */\n    tag_21:\n        /* \"practice/web3/CTFS/captureTheEther/math/FiftyYears/contracts/FiftyYears.sol\":476:480  bool */\n      0x0\n        /* \"practice/web3/CTFS/captureTheEther/math/FiftyYears/contracts/FiftyYears.sol\":524:525  0 */\n      dup1\n        /* \"practice/web3/CTFS/captureTheEther/math/FiftyYears/contracts/FiftyYears.sol\":507:511  this */\n      address\n        /* \"practice/web3/CTFS/captureTheEther/math/FiftyYears/contracts/FiftyYears.sol\":499:520  address(this).balance */\n      0xffffffffffffffffffffffffffffffffffffffff\n      and\n      balance\n        /* \"practice/web3/CTFS/captureTheEther/math/FiftyYears/contracts/FiftyYears.sol\":499:525  address(this).balance == 0 */\n      eq\n        /* \"practice/web3/CTFS/captureTheEther/math/FiftyYears/contracts/FiftyYears.sol\":492:525  return address(this).balance == 0 */\n      swap1\n      pop\n        /* \"practice/web3/CTFS/captureTheEther/math/FiftyYears/contracts/FiftyYears.sol\":433:532  function isComplete() public view returns (bool) {... */\n      swap1\n      jump\t// out\n        /* \"practice/web3/CTFS/captureTheEther/math/FiftyYears/contracts/FiftyYears.sol\":150:177  Contribution[] public queue */\n    tag_24:\n      0x0\n      dup2\n      dup2\n      sload\n      dup2\n      lt\n      iszero\n      iszero\n      tag_50\n      jumpi\n      invalid\n    tag_50:\n      swap1\n      0x0\n      mstore\n      keccak256(0x0, 0x20)\n      swap1\n      0x2\n      mul\n      add\n      0x0\n      swap2\n      pop\n      swap1\n      pop\n      dup1\n      0x0\n      add\n      sload\n      swap1\n      dup1\n      0x1\n      add\n      sload\n      swap1\n      pop\n      dup3\n      jump\t// out\n\n    auxdata: 0xa165627a7a72305820efe5c2ed0d5a2086c5e8543133222197cd60d874dd06fbe6b56a707332ef3d0f0029\n}\n",
				"bytecode": {
					"linkReferences": {},
					"object": "608060405260405160208061060683398101806040528101908080519060200190929190505050670de0b6b3a76400003414151561003c57600080fd5b80600260006101000a81548173ffffffffffffffffffffffffffffffffffffffff021916908373ffffffffffffffffffffffffffffffffffffffff16021790555060006040805190810160405280348152602001635dfc0f0042018152509080600181540180825580915050906001820390600052602060002090600202016000909192909190915060008201518160000155602082015181600101555050505061051a806100ec6000396000f300608060405260043610610078576000357c0100000000000000000000000000000000000000000000000000000000900463ffffffff1680632e1a7d4d1461007d5780633b8f718a146100aa5780638da5cb5b146100d45780638f7dcfa31461012b578063b2fa1c9e14610156578063ddf0b00914610185575b600080fd5b34801561008957600080fd5b506100a8600480360381019080803590602001909291905050506101cd565b005b6100d26004803603810190808035906020019092919080359060200190929190505050610326565b005b3480156100e057600080fd5b506100e961046e565b604051808273ffffffffffffffffffffffffffffffffffffffff1673ffffffffffffffffffffffffffffffffffffffff16815260200191505060405180910390f35b34801561013757600080fd5b50610140610494565b6040518082815260200191505060405180910390f35b34801561016257600080fd5b5061016b61049a565b604051808215151515815260200191505060405180910390f35b34801561019157600080fd5b506101b0600480360381019080803590602001909291905050506104bb565b604051808381526020018281526020019250505060405180910390f35b600080600260009054906101000a900473ffffffffffffffffffffffffffffffffffffffff1673ffffffffffffffffffffffffffffffffffffffff163373ffffffffffffffffffffffffffffffffffffffff1614151561022c57600080fd5b60008381548110151561023b57fe5b906000526020600020906002020160010154421015151561025b57600080fd5b6000915060015490505b82811115156102d05760008181548110151561027d57fe5b906000526020600020906002020160000154820191506000818154811015156102a257fe5b9060005260206000209060020201600080820160009055600182016000905550508080600101915050610265565b600183016001819055503373ffffffffffffffffffffffffffffffffffffffff166108fc839081150290604051600060405180830381858888f19350505050158015610320573d6000803e3d6000fd5b50505050565b6000600260009054906101000a900473ffffffffffffffffffffffffffffffffffffffff1673ffffffffffffffffffffffffffffffffffffffff163373ffffffffffffffffffffffffffffffffffffffff1614151561038457600080fd5b600154831015801561039a575060008054905083105b156103d5576000838154811015156103ae57fe5b90600052602060002090600202019050348160000160008282540192505081905550610469565b6201518060006001600080549050038154811015156103f057fe5b90600052602060002090600202016001015401821015151561041157600080fd5b3481600001819055508181600101819055506000819080600181540180825580915050906001820390600052602060002090600202016000909192909190915060008201548160000155600182015481600101555050505b505050565b600260009054906101000a900473ffffffffffffffffffffffffffffffffffffffff1681565b60015481565b6000803073ffffffffffffffffffffffffffffffffffffffff163114905090565b6000818154811015156104ca57fe5b906000526020600020906002020160009150905080600001549080600101549050825600a165627a7a72305820efe5c2ed0d5a2086c5e8543133222197cd60d874dd06fbe6b56a707332ef3d0f0029",
					"opcodes": "PUSH1 0x80 PUSH1 0x40 MSTORE PUSH1 0x40 MLOAD PUSH1 0x20 DUP1 PUSH2 0x606 DUP4 CODECOPY DUP2 ADD DUP1 PUSH1 0x40 MSTORE DUP2 ADD SWAP1 DUP1 DUP1 MLOAD SWAP1 PUSH1 0x20 ADD SWAP1 SWAP3 SWAP2 SWAP1 POP POP POP PUSH8 0xDE0B6B3A7640000 CALLVALUE EQ ISZERO ISZERO PUSH2 0x3C JUMPI PUSH1 0x0 DUP1 REVERT JUMPDEST DUP1 PUSH1 0x2 PUSH1 0x0 PUSH2 0x100 EXP DUP2 SLOAD DUP2 PUSH20 0xFFFFFFFFFFFFFFFFFFFFFFFFFFFFFFFFFFFFFFFF MUL NOT AND SWAP1 DUP4 PUSH20 0xFFFFFFFFFFFFFFFFFFFFFFFFFFFFFFFFFFFFFFFF AND MUL OR SWAP1 SSTORE POP PUSH1 0x0 PUSH1 0x40 DUP1 MLOAD SWAP1 DUP2 ADD PUSH1 0x40 MSTORE DUP1 CALLVALUE DUP2 MSTORE PUSH1 0x20 ADD PUSH4 0x5DFC0F00 TIMESTAMP ADD DUP2 MSTORE POP SWAP1 DUP1 PUSH1 0x1 DUP2 SLOAD ADD DUP1 DUP3 SSTORE DUP1 SWAP2 POP POP SWAP1 PUSH1 0x1 DUP3 SUB SWAP1 PUSH1 0x0 MSTORE PUSH1 0x20 PUSH1 0x0 KECCAK256 SWAP1 PUSH1 0x2 MUL ADD PUSH1 0x0 SWAP1 SWAP2 SWAP3 SWAP1 SWAP2 SWAP1 SWAP2 POP PUSH1 0x0 DUP3 ADD MLOAD DUP2 PUSH1 0x0 ADD SSTORE PUSH1 0x20 DUP3 ADD MLOAD DUP2 PUSH1 0x1 ADD SSTORE POP POP POP POP PUSH2 0x51A DUP1 PUSH2 0xEC PUSH1 0x0 CODECOPY PUSH1 0x0 RETURN STOP PUSH1 0x80 PUSH1 0x40 MSTORE PUSH1 0x4 CALLDATASIZE LT PUSH2 0x78 JUMPI PUSH1 0x0 CALLDATALOAD PUSH29 0x100000000000000000000000000000000000000000000000000000000 SWAP1 DIV PUSH4 0xFFFFFFFF AND DUP1 PUSH4 0x2E1A7D4D EQ PUSH2 0x7D JUMPI DUP1 PUSH4 0x3B8F718A EQ PUSH2 0xAA JUMPI DUP1 PUSH4 0x8DA5CB5B EQ PUSH2 0xD4 JUMPI DUP1 PUSH4 0x8F7DCFA3 EQ PUSH2 0x12B JUMPI DUP1 PUSH4 0xB2FA1C9E EQ PUSH2 0x156 JUMPI DUP1 PUSH4 0xDDF0B009 EQ PUSH2 0x185 JUMPI JUMPDEST PUSH1 0x0 DUP1 REVERT JUMPDEST CALLVALUE DUP1 ISZERO PUSH2 0x89 JUMPI PUSH1 0x0 DUP1 REVERT JUMPDEST POP PUSH2 0xA8 PUSH1 0x4 DUP1 CALLDATASIZE SUB DUP2 ADD SWAP1 DUP1 DUP1 CALLDATALOAD SWAP1 PUSH1 0x20 ADD SWAP1 SWAP3 SWAP2 SWAP1 POP POP POP PUSH2 0x1CD JUMP JUMPDEST STOP JUMPDEST PUSH2 0xD2 PUSH1 0x4 DUP1 CALLDATASIZE SUB DUP2 ADD SWAP1 DUP1 DUP1 CALLDATALOAD SWAP1 PUSH1 0x20 ADD SWAP1 SWAP3 SWAP2 SWAP1 DUP1 CALLDATALOAD SWAP1 PUSH1 0x20 ADD SWAP1 SWAP3 SWAP2 SWAP1 POP POP POP PUSH2 0x326 JUMP JUMPDEST STOP JUMPDEST CALLVALUE DUP1 ISZERO PUSH2 0xE0 JUMPI PUSH1 0x0 DUP1 REVERT JUMPDEST POP PUSH2 0xE9 PUSH2 0x46E JUMP JUMPDEST PUSH1 0x40 MLOAD DUP1 DUP3 PUSH20 0xFFFFFFFFFFFFFFFFFFFFFFFFFFFFFFFFFFFFFFFF AND PUSH20 0xFFFFFFFFFFFFFFFFFFFFFFFFFFFFFFFFFFFFFFFF AND DUP2 MSTORE PUSH1 0x20 ADD SWAP2 POP POP PUSH1 0x40 MLOAD DUP1 SWAP2 SUB SWAP1 RETURN JUMPDEST CALLVALUE DUP1 ISZERO PUSH2 0x137 JUMPI PUSH1 0x0 DUP1 REVERT JUMPDEST POP PUSH2 0x140 PUSH2 0x494 JUMP JUMPDEST PUSH1 0x40 MLOAD DUP1 DUP3 DUP2 MSTORE PUSH1 0x20 ADD SWAP2 POP POP PUSH1 0x40 MLOAD DUP1 SWAP2 SUB SWAP1 RETURN JUMPDEST CALLVALUE DUP1 ISZERO PUSH2 0x162 JUMPI PUSH1 0x0 DUP1 REVERT JUMPDEST POP PUSH2 0x16B PUSH2 0x49A JUMP JUMPDEST PUSH1 0x40 MLOAD DUP1 DUP3 ISZERO ISZERO ISZERO ISZERO DUP2 MSTORE PUSH1 0x20 ADD SWAP2 POP POP PUSH1 0x40 MLOAD DUP1 SWAP2 SUB SWAP1 RETURN JUMPDEST CALLVALUE DUP1 ISZERO PUSH2 0x191 JUMPI PUSH1 0x0 DUP1 REVERT JUMPDEST POP PUSH2 0x1B0 PUSH1 0x4 DUP1 CALLDATASIZE SUB DUP2 ADD SWAP1 DUP1 DUP1 CALLDATALOAD SWAP1 PUSH1 0x20 ADD SWAP1 SWAP3 SWAP2 SWAP1 POP POP POP PUSH2 0x4BB JUMP JUMPDEST PUSH1 0x40 MLOAD DUP1 DUP4 DUP2 MSTORE PUSH1 0x20 ADD DUP3 DUP2 MSTORE PUSH1 0x20 ADD SWAP3 POP POP POP PUSH1 0x40 MLOAD DUP1 SWAP2 SUB SWAP1 RETURN JUMPDEST PUSH1 0x0 DUP1 PUSH1 0x2 PUSH1 0x0 SWAP1 SLOAD SWAP1 PUSH2 0x100 EXP SWAP1 DIV PUSH20 0xFFFFFFFFFFFFFFFFFFFFFFFFFFFFFFFFFFFFFFFF AND PUSH20 0xFFFFFFFFFFFFFFFFFFFFFFFFFFFFFFFFFFFFFFFF AND CALLER PUSH20 0xFFFFFFFFFFFFFFFFFFFFFFFFFFFFFFFFFFFFFFFF AND EQ ISZERO ISZERO PUSH2 0x22C JUMPI PUSH1 0x0 DUP1 REVERT JUMPDEST PUSH1 0x0 DUP4 DUP2 SLOAD DUP2 LT ISZERO ISZERO PUSH2 0x23B JUMPI INVALID JUMPDEST SWAP1 PUSH1 0x0 MSTORE PUSH1 0x20 PUSH1 0x0 KECCAK256 SWAP1 PUSH1 0x2 MUL ADD PUSH1 0x1 ADD SLOAD TIMESTAMP LT ISZERO ISZERO ISZERO PUSH2 0x25B JUMPI PUSH1 0x0 DUP1 REVERT JUMPDEST PUSH1 0x0 SWAP2 POP PUSH1 0x1 SLOAD SWAP1 POP JUMPDEST DUP3 DUP2 GT ISZERO ISZERO PUSH2 0x2D0 JUMPI PUSH1 0x0 DUP2 DUP2 SLOAD DUP2 LT ISZERO ISZERO PUSH2 0x27D JUMPI INVALID JUMPDEST SWAP1 PUSH1 0x0 MSTORE PUSH1 0x20 PUSH1 0x0 KECCAK256 SWAP1 PUSH1 0x2 MUL ADD PUSH1 0x0 ADD SLOAD DUP3 ADD SWAP2 POP PUSH1 0x0 DUP2 DUP2 SLOAD DUP2 LT ISZERO ISZERO PUSH2 0x2A2 JUMPI INVALID JUMPDEST SWAP1 PUSH1 0x0 MSTORE PUSH1 0x20 PUSH1 0x0 KECCAK256 SWAP1 PUSH1 0x2 MUL ADD PUSH1 0x0 DUP1 DUP3 ADD PUSH1 0x0 SWAP1 SSTORE PUSH1 0x1 DUP3 ADD PUSH1 0x0 SWAP1 SSTORE POP POP DUP1 DUP1 PUSH1 0x1 ADD SWAP2 POP POP PUSH2 0x265 JUMP JUMPDEST PUSH1 0x1 DUP4 ADD PUSH1 0x1 DUP2 SWAP1 SSTORE POP CALLER PUSH20 0xFFFFFFFFFFFFFFFFFFFFFFFFFFFFFFFFFFFFFFFF AND PUSH2 0x8FC DUP4 SWAP1 DUP2 ISZERO MUL SWAP1 PUSH1 0x40 MLOAD PUSH1 0x0 PUSH1 0x40 MLOAD DUP1 DUP4 SUB DUP2 DUP6 DUP9 DUP9 CALL SWAP4 POP POP POP POP ISZERO DUP1 ISZERO PUSH2 0x320 JUMPI RETURNDATASIZE PUSH1 0x0 DUP1 RETURNDATACOPY RETURNDATASIZE PUSH1 0x0 REVERT JUMPDEST POP POP POP POP JUMP JUMPDEST PUSH1 0x0 PUSH1 0x2 PUSH1 0x0 SWAP1 SLOAD SWAP1 PUSH2 0x100 EXP SWAP1 DIV PUSH20 0xFFFFFFFFFFFFFFFFFFFFFFFFFFFFFFFFFFFFFFFF AND PUSH20 0xFFFFFFFFFFFFFFFFFFFFFFFFFFFFFFFFFFFFFFFF AND CALLER PUSH20 0xFFFFFFFFFFFFFFFFFFFFFFFFFFFFFFFFFFFFFFFF AND EQ ISZERO ISZERO PUSH2 0x384 JUMPI PUSH1 0x0 DUP1 REVERT JUMPDEST PUSH1 0x1 SLOAD DUP4 LT ISZERO DUP1 ISZERO PUSH2 0x39A JUMPI POP PUSH1 0x0 DUP1 SLOAD SWAP1 POP DUP4 LT JUMPDEST ISZERO PUSH2 0x3D5 JUMPI PUSH1 0x0 DUP4 DUP2 SLOAD DUP2 LT ISZERO ISZERO PUSH2 0x3AE JUMPI INVALID JUMPDEST SWAP1 PUSH1 0x0 MSTORE PUSH1 0x20 PUSH1 0x0 KECCAK256 SWAP1 PUSH1 0x2 MUL ADD SWAP1 POP CALLVALUE DUP2 PUSH1 0x0 ADD PUSH1 0x0 DUP3 DUP3 SLOAD ADD SWAP3 POP POP DUP2 SWAP1 SSTORE POP PUSH2 0x469 JUMP JUMPDEST PUSH3 0x15180 PUSH1 0x0 PUSH1 0x1 PUSH1 0x0 DUP1 SLOAD SWAP1 POP SUB DUP2 SLOAD DUP2 LT ISZERO ISZERO PUSH2 0x3F0 JUMPI INVALID JUMPDEST SWAP1 PUSH1 0x0 MSTORE PUSH1 0x20 PUSH1 0x0 KECCAK256 SWAP1 PUSH1 0x2 MUL ADD PUSH1 0x1 ADD SLOAD ADD DUP3 LT ISZERO ISZERO ISZERO PUSH2 0x411 JUMPI PUSH1 0x0 DUP1 REVERT JUMPDEST CALLVALUE DUP2 PUSH1 0x0 ADD DUP2 SWAP1 SSTORE POP DUP2 DUP2 PUSH1 0x1 ADD DUP2 SWAP1 SSTORE POP PUSH1 0x0 DUP2 SWAP1 DUP1 PUSH1 0x1 DUP2 SLOAD ADD DUP1 DUP3 SSTORE DUP1 SWAP2 POP POP SWAP1 PUSH1 0x1 DUP3 SUB SWAP1 PUSH1 0x0 MSTORE PUSH1 0x20 PUSH1 0x0 KECCAK256 SWAP1 PUSH1 0x2 MUL ADD PUSH1 0x0 SWAP1 SWAP2 SWAP3 SWAP1 SWAP2 SWAP1 SWAP2 POP PUSH1 0x0 DUP3 ADD SLOAD DUP2 PUSH1 0x0 ADD SSTORE PUSH1 0x1 DUP3 ADD SLOAD DUP2 PUSH1 0x1 ADD SSTORE POP POP POP JUMPDEST POP POP POP JUMP JUMPDEST PUSH1 0x2 PUSH1 0x0 SWAP1 SLOAD SWAP1 PUSH2 0x100 EXP SWAP1 DIV PUSH20 0xFFFFFFFFFFFFFFFFFFFFFFFFFFFFFFFFFFFFFFFF AND DUP2 JUMP JUMPDEST PUSH1 0x1 SLOAD DUP2 JUMP JUMPDEST PUSH1 0x0 DUP1 ADDRESS PUSH20 0xFFFFFFFFFFFFFFFFFFFFFFFFFFFFFFFFFFFFFFFF AND BALANCE EQ SWAP1 POP SWAP1 JUMP JUMPDEST PUSH1 0x0 DUP2 DUP2 SLOAD DUP2 LT ISZERO ISZERO PUSH2 0x4CA JUMPI INVALID JUMPDEST SWAP1 PUSH1 0x0 MSTORE PUSH1 0x20 PUSH1 0x0 KECCAK256 SWAP1 PUSH1 0x2 MUL ADD PUSH1 0x0 SWAP2 POP SWAP1 POP DUP1 PUSH1 0x0 ADD SLOAD SWAP1 DUP1 PUSH1 0x1 ADD SLOAD SWAP1 POP DUP3 JUMP STOP LOG1 PUSH6 0x627A7A723058 KECCAK256 0xef 0xe5 0xc2 0xed 0xd GAS KECCAK256 DUP7 0xc5 0xe8 SLOAD BALANCE CALLER 0x22 0x21 SWAP8 0xcd PUSH1 0xD8 PUSH21 0xDD06FBE6B56A707332EF3D0F002900000000000000 "
				},
				"gasEstimates": {
					"creation": {
						"codeDepositCost": "261200",
						"executionCost": "81099",
						"totalCost": "342299"
					},
					"external": {
						"head()": "460",
						"isComplete()": "713",
						"owner()": "486",
						"queue(uint256)": "1116",
						"upsert(uint256,uint256)": "102544",
						"withdraw(uint256)": "infinite"
					}
				},
				"methodIdentifiers": {
					"head()": "8f7dcfa3",
					"isComplete()": "b2fa1c9e",
					"owner()": "8da5cb5b",
					"queue(uint256)": "ddf0b009",
					"upsert(uint256,uint256)": "3b8f718a",
					"withdraw(uint256)": "2e1a7d4d"
				}
			},
			"userdoc": {
				"methods": {}
			}
		}
	}
}