{
	"practice/web3/CTFS/captureTheEther/math/RetirementFund/contracts/RetirementFund.sol": {
		"RetirementFundChallenge": {
			"abi": [
				{
					"constant": false,
					"inputs": [],
					"name": "collectPenalty",
					"outputs": [],
					"payable": false,
					"stateMutability": "nonpayable",
					"type": "function"
				},
				{
					"constant": false,
					"inputs": [],
					"name": "withdraw",
					"outputs": [],
					"payable": false,
					"stateMutability": "nonpayable",
					"type": "function"
				},
				{
					"constant": true,
					"inputs": [],
					"name": "isComplete",
					"outputs": [
						{
							"name": "",
							"type": "bool"
						}
					],
					"payable": false,
					"stateMutability": "view",
					"type": "function"
				},
				{
					"inputs": [
						{
							"name": "player",
							"type": "address"
						}
					],
					"payable": true,
					"stateMutability": "payable",
					"type": "constructor"
				}
			],
			"devdoc": {
				"methods": {}
			},
			"evm": {
				"assembly": "    /* \"practice/web3/CTFS/captureTheEther/math/RetirementFund/contracts/RetirementFund.sol\":469:1544  contract RetirementFundChallenge {... */\n  mstore(0x40, 0x80)\n    /* \"practice/web3/CTFS/captureTheEther/math/RetirementFund/contracts/RetirementFund.sol\":550:560  msg.sender */\n  caller\n    /* \"practice/web3/CTFS/captureTheEther/math/RetirementFund/contracts/RetirementFund.sol\":534:560  address owner = msg.sender */\n  0x1\n  exp(0x100, 0x0)\n  dup2\n  sload\n  dup2\n  0xffffffffffffffffffffffffffffffffffffffff\n  mul\n  not\n  and\n  swap1\n  dup4\n  0xffffffffffffffffffffffffffffffffffffffff\n  and\n  mul\n  or\n  swap1\n  sstore\n  pop\n    /* \"practice/web3/CTFS/captureTheEther/math/RetirementFund/contracts/RetirementFund.sol\":618:626  10 years */\n  0x12cc0300\n    /* \"practice/web3/CTFS/captureTheEther/math/RetirementFund/contracts/RetirementFund.sol\":612:615  now */\n  timestamp\n    /* \"practice/web3/CTFS/captureTheEther/math/RetirementFund/contracts/RetirementFund.sol\":612:626  now + 10 years */\n  add\n    /* \"practice/web3/CTFS/captureTheEther/math/RetirementFund/contracts/RetirementFund.sol\":591:626  uint256 expiration = now + 10 years */\n  0x3\n  sstore\n    /* \"practice/web3/CTFS/captureTheEther/math/RetirementFund/contracts/RetirementFund.sol\":633:808  function RetirementFundChallenge(address player) public payable {... */\n  mload(0x40)\n  0x20\n  dup1\n  bytecodeSize\n  dup4\n  codecopy\n  dup2\n  add\n  dup1\n  0x40\n  mstore\n  dup2\n  add\n  swap1\n  dup1\n  dup1\n  mload\n  swap1\n  0x20\n  add\n  swap1\n  swap3\n  swap2\n  swap1\n  pop\n  pop\n  pop\n    /* \"practice/web3/CTFS/captureTheEther/math/RetirementFund/contracts/RetirementFund.sol\":728:735  1 ether */\n  0xde0b6b3a7640000\n    /* \"practice/web3/CTFS/captureTheEther/math/RetirementFund/contracts/RetirementFund.sol\":715:724  msg.value */\n  callvalue\n    /* \"practice/web3/CTFS/captureTheEther/math/RetirementFund/contracts/RetirementFund.sol\":715:735  msg.value == 1 ether */\n  eq\n    /* \"practice/web3/CTFS/captureTheEther/math/RetirementFund/contracts/RetirementFund.sol\":707:736  require(msg.value == 1 ether) */\n  iszero\n  iszero\n  tag_3\n  jumpi\n  0x0\n  dup1\n  revert\ntag_3:\n    /* \"practice/web3/CTFS/captureTheEther/math/RetirementFund/contracts/RetirementFund.sol\":761:767  player */\n  dup1\n    /* \"practice/web3/CTFS/captureTheEther/math/RetirementFund/contracts/RetirementFund.sol\":747:758  beneficiary */\n  0x2\n  0x0\n    /* \"practice/web3/CTFS/captureTheEther/math/RetirementFund/contracts/RetirementFund.sol\":747:767  beneficiary = player */\n  0x100\n  exp\n  dup2\n  sload\n  dup2\n  0xffffffffffffffffffffffffffffffffffffffff\n  mul\n  not\n  and\n  swap1\n  dup4\n  0xffffffffffffffffffffffffffffffffffffffff\n  and\n  mul\n  or\n  swap1\n  sstore\n  pop\n    /* \"practice/web3/CTFS/captureTheEther/math/RetirementFund/contracts/RetirementFund.sol\":792:801  msg.value */\n  callvalue\n    /* \"practice/web3/CTFS/captureTheEther/math/RetirementFund/contracts/RetirementFund.sol\":777:789  startBalance */\n  0x0\n    /* \"practice/web3/CTFS/captureTheEther/math/RetirementFund/contracts/RetirementFund.sol\":777:801  startBalance = msg.value */\n  dup2\n  swap1\n  sstore\n  pop\n    /* \"practice/web3/CTFS/captureTheEther/math/RetirementFund/contracts/RetirementFund.sol\":633:808  function RetirementFundChallenge(address player) public payable {... */\n  pop\n    /* \"practice/web3/CTFS/captureTheEther/math/RetirementFund/contracts/RetirementFund.sol\":469:1544  contract RetirementFundChallenge {... */\n  dataSize(sub_0)\n  dup1\n  dataOffset(sub_0)\n  0x0\n  codecopy\n  0x0\n  return\nstop\n\nsub_0: assembly {\n        /* \"practice/web3/CTFS/captureTheEther/math/RetirementFund/contracts/RetirementFund.sol\":469:1544  contract RetirementFundChallenge {... */\n      mstore(0x40, 0x80)\n      jumpi(tag_1, lt(calldatasize, 0x4))\n      calldataload(0x0)\n      0x100000000000000000000000000000000000000000000000000000000\n      swap1\n      div\n      0xffffffff\n      and\n      dup1\n      0x39f22f6b\n      eq\n      tag_2\n      jumpi\n      dup1\n      0x3ccfd60b\n      eq\n      tag_3\n      jumpi\n      dup1\n      0xb2fa1c9e\n      eq\n      tag_4\n      jumpi\n    tag_1:\n      0x0\n      dup1\n      revert\n        /* \"practice/web3/CTFS/captureTheEther/math/RetirementFund/contracts/RetirementFund.sol\":1231:1542  function collectPenalty() public {... */\n    tag_2:\n      callvalue\n        /* \"--CODEGEN--\":8:17   */\n      dup1\n        /* \"--CODEGEN--\":5:7   */\n      iszero\n      tag_5\n      jumpi\n        /* \"--CODEGEN--\":30:31   */\n      0x0\n        /* \"--CODEGEN--\":27:28   */\n      dup1\n        /* \"--CODEGEN--\":20:32   */\n      revert\n        /* \"--CODEGEN--\":5:7   */\n    tag_5:\n        /* \"practice/web3/CTFS/captureTheEther/math/RetirementFund/contracts/RetirementFund.sol\":1231:1542  function collectPenalty() public {... */\n      pop\n      tag_6\n      jump(tag_7)\n    tag_6:\n      stop\n        /* \"practice/web3/CTFS/captureTheEther/math/RetirementFund/contracts/RetirementFund.sol\":919:1225  function withdraw() public {... */\n    tag_3:\n      callvalue\n        /* \"--CODEGEN--\":8:17   */\n      dup1\n        /* \"--CODEGEN--\":5:7   */\n      iszero\n      tag_8\n      jumpi\n        /* \"--CODEGEN--\":30:31   */\n      0x0\n        /* \"--CODEGEN--\":27:28   */\n      dup1\n        /* \"--CODEGEN--\":20:32   */\n      revert\n        /* \"--CODEGEN--\":5:7   */\n    tag_8:\n        /* \"practice/web3/CTFS/captureTheEther/math/RetirementFund/contracts/RetirementFund.sol\":919:1225  function withdraw() public {... */\n      pop\n      tag_9\n      jump(tag_10)\n    tag_9:\n      stop\n        /* \"practice/web3/CTFS/captureTheEther/math/RetirementFund/contracts/RetirementFund.sol\":814:913  function isComplete() public view returns (bool) {... */\n    tag_4:\n      callvalue\n        /* \"--CODEGEN--\":8:17   */\n      dup1\n        /* \"--CODEGEN--\":5:7   */\n      iszero\n      tag_11\n      jumpi\n        /* \"--CODEGEN--\":30:31   */\n      0x0\n        /* \"--CODEGEN--\":27:28   */\n      dup1\n        /* \"--CODEGEN--\":20:32   */\n      revert\n        /* \"--CODEGEN--\":5:7   */\n    tag_11:\n        /* \"practice/web3/CTFS/captureTheEther/math/RetirementFund/contracts/RetirementFund.sol\":814:913  function isComplete() public view returns (bool) {... */\n      pop\n      tag_12\n      jump(tag_13)\n    tag_12:\n      mload(0x40)\n      dup1\n      dup3\n      iszero\n      iszero\n      iszero\n      iszero\n      dup2\n      mstore\n      0x20\n      add\n      swap2\n      pop\n      pop\n      mload(0x40)\n      dup1\n      swap2\n      sub\n      swap1\n      return\n        /* \"practice/web3/CTFS/captureTheEther/math/RetirementFund/contracts/RetirementFund.sol\":1231:1542  function collectPenalty() public {... */\n    tag_7:\n        /* \"practice/web3/CTFS/captureTheEther/math/RetirementFund/contracts/RetirementFund.sol\":1319:1336  uint256 withdrawn */\n      0x0\n        /* \"practice/web3/CTFS/captureTheEther/math/RetirementFund/contracts/RetirementFund.sol\":1296:1307  beneficiary */\n      0x2\n      0x0\n      swap1\n      sload\n      swap1\n      0x100\n      exp\n      swap1\n      div\n      0xffffffffffffffffffffffffffffffffffffffff\n      and\n        /* \"practice/web3/CTFS/captureTheEther/math/RetirementFund/contracts/RetirementFund.sol\":1282:1307  msg.sender == beneficiary */\n      0xffffffffffffffffffffffffffffffffffffffff\n      and\n        /* \"practice/web3/CTFS/captureTheEther/math/RetirementFund/contracts/RetirementFund.sol\":1282:1292  msg.sender */\n      caller\n        /* \"practice/web3/CTFS/captureTheEther/math/RetirementFund/contracts/RetirementFund.sol\":1282:1307  msg.sender == beneficiary */\n      0xffffffffffffffffffffffffffffffffffffffff\n      and\n      eq\n        /* \"practice/web3/CTFS/captureTheEther/math/RetirementFund/contracts/RetirementFund.sol\":1274:1308  require(msg.sender == beneficiary) */\n      iszero\n      iszero\n      tag_15\n      jumpi\n      0x0\n      dup1\n      revert\n    tag_15:\n        /* \"practice/web3/CTFS/captureTheEther/math/RetirementFund/contracts/RetirementFund.sol\":1362:1366  this */\n      address\n        /* \"practice/web3/CTFS/captureTheEther/math/RetirementFund/contracts/RetirementFund.sol\":1354:1375  address(this).balance */\n      0xffffffffffffffffffffffffffffffffffffffff\n      and\n      balance\n        /* \"practice/web3/CTFS/captureTheEther/math/RetirementFund/contracts/RetirementFund.sol\":1339:1351  startBalance */\n      sload(0x0)\n        /* \"practice/web3/CTFS/captureTheEther/math/RetirementFund/contracts/RetirementFund.sol\":1339:1375  startBalance - address(this).balance */\n      sub\n        /* \"practice/web3/CTFS/captureTheEther/math/RetirementFund/contracts/RetirementFund.sol\":1319:1375  uint256 withdrawn = startBalance - address(this).balance */\n      swap1\n      pop\n        /* \"practice/web3/CTFS/captureTheEther/math/RetirementFund/contracts/RetirementFund.sol\":1446:1447  0 */\n      0x0\n        /* \"practice/web3/CTFS/captureTheEther/math/RetirementFund/contracts/RetirementFund.sol\":1434:1443  withdrawn */\n      dup2\n        /* \"practice/web3/CTFS/captureTheEther/math/RetirementFund/contracts/RetirementFund.sol\":1434:1447  withdrawn > 0 */\n      gt\n        /* \"practice/web3/CTFS/captureTheEther/math/RetirementFund/contracts/RetirementFund.sol\":1426:1448  require(withdrawn > 0) */\n      iszero\n      iszero\n      tag_16\n      jumpi\n      0x0\n      dup1\n      revert\n    tag_16:\n        /* \"practice/web3/CTFS/captureTheEther/math/RetirementFund/contracts/RetirementFund.sol\":1493:1503  msg.sender */\n      caller\n        /* \"practice/web3/CTFS/captureTheEther/math/RetirementFund/contracts/RetirementFund.sol\":1493:1512  msg.sender.transfer */\n      0xffffffffffffffffffffffffffffffffffffffff\n      and\n        /* \"practice/web3/CTFS/captureTheEther/math/RetirementFund/contracts/RetirementFund.sol\":1493:1535  msg.sender.transfer(address(this).balance) */\n      0x8fc\n        /* \"practice/web3/CTFS/captureTheEther/math/RetirementFund/contracts/RetirementFund.sol\":1521:1525  this */\n      address\n        /* \"practice/web3/CTFS/captureTheEther/math/RetirementFund/contracts/RetirementFund.sol\":1513:1534  address(this).balance */\n      0xffffffffffffffffffffffffffffffffffffffff\n      and\n      balance\n        /* \"practice/web3/CTFS/captureTheEther/math/RetirementFund/contracts/RetirementFund.sol\":1493:1535  msg.sender.transfer(address(this).balance) */\n      swap1\n      dup2\n      iszero\n      mul\n      swap1\n      mload(0x40)\n      0x0\n      mload(0x40)\n      dup1\n      dup4\n      sub\n      dup2\n      dup6\n      dup9\n      dup9\n      call\n      swap4\n      pop\n      pop\n      pop\n      pop\n      iszero\n        /* \"--CODEGEN--\":8:17   */\n      dup1\n        /* \"--CODEGEN--\":5:7   */\n      iszero\n      tag_17\n      jumpi\n        /* \"--CODEGEN--\":45:61   */\n      returndatasize\n        /* \"--CODEGEN--\":42:43   */\n      0x0\n        /* \"--CODEGEN--\":39:40   */\n      dup1\n        /* \"--CODEGEN--\":24:62   */\n      returndatacopy\n        /* \"--CODEGEN--\":77:93   */\n      returndatasize\n        /* \"--CODEGEN--\":74:75   */\n      0x0\n        /* \"--CODEGEN--\":67:94   */\n      revert\n        /* \"--CODEGEN--\":5:7   */\n    tag_17:\n        /* \"practice/web3/CTFS/captureTheEther/math/RetirementFund/contracts/RetirementFund.sol\":1493:1535  msg.sender.transfer(address(this).balance) */\n      pop\n        /* \"practice/web3/CTFS/captureTheEther/math/RetirementFund/contracts/RetirementFund.sol\":1231:1542  function collectPenalty() public {... */\n      pop\n      jump\t// out\n        /* \"practice/web3/CTFS/captureTheEther/math/RetirementFund/contracts/RetirementFund.sol\":919:1225  function withdraw() public {... */\n    tag_10:\n        /* \"practice/web3/CTFS/captureTheEther/math/RetirementFund/contracts/RetirementFund.sol\":978:983  owner */\n      0x1\n      0x0\n      swap1\n      sload\n      swap1\n      0x100\n      exp\n      swap1\n      div\n      0xffffffffffffffffffffffffffffffffffffffff\n      and\n        /* \"practice/web3/CTFS/captureTheEther/math/RetirementFund/contracts/RetirementFund.sol\":964:983  msg.sender == owner */\n      0xffffffffffffffffffffffffffffffffffffffff\n      and\n        /* \"practice/web3/CTFS/captureTheEther/math/RetirementFund/contracts/RetirementFund.sol\":964:974  msg.sender */\n      caller\n        /* \"practice/web3/CTFS/captureTheEther/math/RetirementFund/contracts/RetirementFund.sol\":964:983  msg.sender == owner */\n      0xffffffffffffffffffffffffffffffffffffffff\n      and\n      eq\n        /* \"practice/web3/CTFS/captureTheEther/math/RetirementFund/contracts/RetirementFund.sol\":956:984  require(msg.sender == owner) */\n      iszero\n      iszero\n      tag_19\n      jumpi\n      0x0\n      dup1\n      revert\n    tag_19:\n        /* \"practice/web3/CTFS/captureTheEther/math/RetirementFund/contracts/RetirementFund.sol\":1005:1015  expiration */\n      sload(0x3)\n        /* \"practice/web3/CTFS/captureTheEther/math/RetirementFund/contracts/RetirementFund.sol\":999:1002  now */\n      timestamp\n        /* \"practice/web3/CTFS/captureTheEther/math/RetirementFund/contracts/RetirementFund.sol\":999:1015  now < expiration */\n      lt\n        /* \"practice/web3/CTFS/captureTheEther/math/RetirementFund/contracts/RetirementFund.sol\":995:1219  if (now < expiration) {... */\n      iszero\n      tag_20\n      jumpi\n        /* \"practice/web3/CTFS/captureTheEther/math/RetirementFund/contracts/RetirementFund.sol\":1084:1094  msg.sender */\n      caller\n        /* \"practice/web3/CTFS/captureTheEther/math/RetirementFund/contracts/RetirementFund.sol\":1084:1103  msg.sender.transfer */\n      0xffffffffffffffffffffffffffffffffffffffff\n      and\n        /* \"practice/web3/CTFS/captureTheEther/math/RetirementFund/contracts/RetirementFund.sol\":1084:1135  msg.sender.transfer(address(this).balance * 9 / 10) */\n      0x8fc\n        /* \"practice/web3/CTFS/captureTheEther/math/RetirementFund/contracts/RetirementFund.sol\":1132:1134  10 */\n      0xa\n        /* \"practice/web3/CTFS/captureTheEther/math/RetirementFund/contracts/RetirementFund.sol\":1128:1129  9 */\n      0x9\n        /* \"practice/web3/CTFS/captureTheEther/math/RetirementFund/contracts/RetirementFund.sol\":1112:1116  this */\n      address\n        /* \"practice/web3/CTFS/captureTheEther/math/RetirementFund/contracts/RetirementFund.sol\":1104:1125  address(this).balance */\n      0xffffffffffffffffffffffffffffffffffffffff\n      and\n      balance\n        /* \"practice/web3/CTFS/captureTheEther/math/RetirementFund/contracts/RetirementFund.sol\":1104:1129  address(this).balance * 9 */\n      mul\n        /* \"practice/web3/CTFS/captureTheEther/math/RetirementFund/contracts/RetirementFund.sol\":1104:1134  address(this).balance * 9 / 10 */\n      dup2\n      iszero\n      iszero\n      tag_21\n      jumpi\n      invalid\n    tag_21:\n      div\n        /* \"practice/web3/CTFS/captureTheEther/math/RetirementFund/contracts/RetirementFund.sol\":1084:1135  msg.sender.transfer(address(this).balance * 9 / 10) */\n      swap1\n      dup2\n      iszero\n      mul\n      swap1\n      mload(0x40)\n      0x0\n      mload(0x40)\n      dup1\n      dup4\n      sub\n      dup2\n      dup6\n      dup9\n      dup9\n      call\n      swap4\n      pop\n      pop\n      pop\n      pop\n      iszero\n        /* \"--CODEGEN--\":8:17   */\n      dup1\n        /* \"--CODEGEN--\":5:7   */\n      iszero\n      tag_22\n      jumpi\n        /* \"--CODEGEN--\":45:61   */\n      returndatasize\n        /* \"--CODEGEN--\":42:43   */\n      0x0\n        /* \"--CODEGEN--\":39:40   */\n      dup1\n        /* \"--CODEGEN--\":24:62   */\n      returndatacopy\n        /* \"--CODEGEN--\":77:93   */\n      returndatasize\n        /* \"--CODEGEN--\":74:75   */\n      0x0\n        /* \"--CODEGEN--\":67:94   */\n      revert\n        /* \"--CODEGEN--\":5:7   */\n    tag_22:\n        /* \"practice/web3/CTFS/captureTheEther/math/RetirementFund/contracts/RetirementFund.sol\":1084:1135  msg.sender.transfer(address(this).balance * 9 / 10) */\n      pop\n        /* \"practice/web3/CTFS/captureTheEther/math/RetirementFund/contracts/RetirementFund.sol\":995:1219  if (now < expiration) {... */\n      jump(tag_23)\n    tag_20:\n        /* \"practice/web3/CTFS/captureTheEther/math/RetirementFund/contracts/RetirementFund.sol\":1166:1176  msg.sender */\n      caller\n        /* \"practice/web3/CTFS/captureTheEther/math/RetirementFund/contracts/RetirementFund.sol\":1166:1185  msg.sender.transfer */\n      0xffffffffffffffffffffffffffffffffffffffff\n      and\n        /* \"practice/web3/CTFS/captureTheEther/math/RetirementFund/contracts/RetirementFund.sol\":1166:1208  msg.sender.transfer(address(this).balance) */\n      0x8fc\n        /* \"practice/web3/CTFS/captureTheEther/math/RetirementFund/contracts/RetirementFund.sol\":1194:1198  this */\n      address\n        /* \"practice/web3/CTFS/captureTheEther/math/RetirementFund/contracts/RetirementFund.sol\":1186:1207  address(this).balance */\n      0xffffffffffffffffffffffffffffffffffffffff\n      and\n      balance\n        /* \"practice/web3/CTFS/captureTheEther/math/RetirementFund/contracts/RetirementFund.sol\":1166:1208  msg.sender.transfer(address(this).balance) */\n      swap1\n      dup2\n      iszero\n      mul\n      swap1\n      mload(0x40)\n      0x0\n      mload(0x40)\n      dup1\n      dup4\n      sub\n      dup2\n      dup6\n      dup9\n      dup9\n      call\n      swap4\n      pop\n      pop\n      pop\n      pop\n      iszero\n        /* \"--CODEGEN--\":8:17   */\n      dup1\n        /* \"--CODEGEN--\":5:7   */\n      iszero\n      tag_24\n      jumpi\n        /* \"--CODEGEN--\":45:61   */\n      returndatasize\n        /* \"--CODEGEN--\":42:43   */\n      0x0\n        /* \"--CODEGEN--\":39:40   */\n      dup1\n        /* \"--CODEGEN--\":24:62   */\n      returndatacopy\n        /* \"--CODEGEN--\":77:93   */\n      returndatasize\n        /* \"--CODEGEN--\":74:75   */\n      0x0\n        /* \"--CODEGEN--\":67:94   */\n      revert\n        /* \"--CODEGEN--\":5:7   */\n    tag_24:\n        /* \"practice/web3/CTFS/captureTheEther/math/RetirementFund/contracts/RetirementFund.sol\":1166:1208  msg.sender.transfer(address(this).balance) */\n      pop\n        /* \"practice/web3/CTFS/captureTheEther/math/RetirementFund/contracts/RetirementFund.sol\":995:1219  if (now < expiration) {... */\n    tag_23:\n        /* \"practice/web3/CTFS/captureTheEther/math/RetirementFund/contracts/RetirementFund.sol\":919:1225  function withdraw() public {... */\n      jump\t// out\n        /* \"practice/web3/CTFS/captureTheEther/math/RetirementFund/contracts/RetirementFund.sol\":814:913  function isComplete() public view returns (bool) {... */\n    tag_13:\n        /* \"practice/web3/CTFS/captureTheEther/math/RetirementFund/contracts/RetirementFund.sol\":857:861  bool */\n      0x0\n        /* \"practice/web3/CTFS/captureTheEther/math/RetirementFund/contracts/RetirementFund.sol\":905:906  0 */\n      dup1\n        /* \"practice/web3/CTFS/captureTheEther/math/RetirementFund/contracts/RetirementFund.sol\":888:892  this */\n      address\n        /* \"practice/web3/CTFS/captureTheEther/math/RetirementFund/contracts/RetirementFund.sol\":880:901  address(this).balance */\n      0xffffffffffffffffffffffffffffffffffffffff\n      and\n      balance\n        /* \"practice/web3/CTFS/captureTheEther/math/RetirementFund/contracts/RetirementFund.sol\":880:906  address(this).balance == 0 */\n      eq\n        /* \"practice/web3/CTFS/captureTheEther/math/RetirementFund/contracts/RetirementFund.sol\":873:906  return address(this).balance == 0 */\n      swap1\n      pop\n        /* \"practice/web3/CTFS/captureTheEther/math/RetirementFund/contracts/RetirementFund.sol\":814:913  function isComplete() public view returns (bool) {... */\n      swap1\n      jump\t// out\n\n    auxdata: 0xa165627a7a72305820d186c3e978bab73a6dc0c91ac594db2d09cf635c98f7f6181219c1c8db4231a00029\n}\n",
				"bytecode": {
					"linkReferences": {},
					"object": "608060405233600160006101000a81548173ffffffffffffffffffffffffffffffffffffffff021916908373ffffffffffffffffffffffffffffffffffffffff1602179055506312cc0300420160035560405160208061040a83398101806040528101908080519060200190929190505050670de0b6b3a76400003414151561008757600080fd5b80600260006101000a81548173ffffffffffffffffffffffffffffffffffffffff021916908373ffffffffffffffffffffffffffffffffffffffff160217905550346000819055505061032b806100df6000396000f300608060405260043610610057576000357c0100000000000000000000000000000000000000000000000000000000900463ffffffff16806339f22f6b1461005c5780633ccfd60b14610073578063b2fa1c9e1461008a575b600080fd5b34801561006857600080fd5b506100716100b9565b005b34801561007f57600080fd5b506100886101a5565b005b34801561009657600080fd5b5061009f6102de565b604051808215151515815260200191505060405180910390f35b6000600260009054906101000a900473ffffffffffffffffffffffffffffffffffffffff1673ffffffffffffffffffffffffffffffffffffffff163373ffffffffffffffffffffffffffffffffffffffff1614151561011757600080fd5b3073ffffffffffffffffffffffffffffffffffffffff163160005403905060008111151561014457600080fd5b3373ffffffffffffffffffffffffffffffffffffffff166108fc3073ffffffffffffffffffffffffffffffffffffffff16319081150290604051600060405180830381858888f193505050501580156101a1573d6000803e3d6000fd5b5050565b600160009054906101000a900473ffffffffffffffffffffffffffffffffffffffff1673ffffffffffffffffffffffffffffffffffffffff163373ffffffffffffffffffffffffffffffffffffffff1614151561020157600080fd5b60035442101561027d573373ffffffffffffffffffffffffffffffffffffffff166108fc600a60093073ffffffffffffffffffffffffffffffffffffffff16310281151561024b57fe5b049081150290604051600060405180830381858888f19350505050158015610277573d6000803e3d6000fd5b506102dc565b3373ffffffffffffffffffffffffffffffffffffffff166108fc3073ffffffffffffffffffffffffffffffffffffffff16319081150290604051600060405180830381858888f193505050501580156102da573d6000803e3d6000fd5b505b565b6000803073ffffffffffffffffffffffffffffffffffffffff1631149050905600a165627a7a72305820d186c3e978bab73a6dc0c91ac594db2d09cf635c98f7f6181219c1c8db4231a00029",
					"opcodes": "PUSH1 0x80 PUSH1 0x40 MSTORE CALLER PUSH1 0x1 PUSH1 0x0 PUSH2 0x100 EXP DUP2 SLOAD DUP2 PUSH20 0xFFFFFFFFFFFFFFFFFFFFFFFFFFFFFFFFFFFFFFFF MUL NOT AND SWAP1 DUP4 PUSH20 0xFFFFFFFFFFFFFFFFFFFFFFFFFFFFFFFFFFFFFFFF AND MUL OR SWAP1 SSTORE POP PUSH4 0x12CC0300 TIMESTAMP ADD PUSH1 0x3 SSTORE PUSH1 0x40 MLOAD PUSH1 0x20 DUP1 PUSH2 0x40A DUP4 CODECOPY DUP2 ADD DUP1 PUSH1 0x40 MSTORE DUP2 ADD SWAP1 DUP1 DUP1 MLOAD SWAP1 PUSH1 0x20 ADD SWAP1 SWAP3 SWAP2 SWAP1 POP POP POP PUSH8 0xDE0B6B3A7640000 CALLVALUE EQ ISZERO ISZERO PUSH2 0x87 JUMPI PUSH1 0x0 DUP1 REVERT JUMPDEST DUP1 PUSH1 0x2 PUSH1 0x0 PUSH2 0x100 EXP DUP2 SLOAD DUP2 PUSH20 0xFFFFFFFFFFFFFFFFFFFFFFFFFFFFFFFFFFFFFFFF MUL NOT AND SWAP1 DUP4 PUSH20 0xFFFFFFFFFFFFFFFFFFFFFFFFFFFFFFFFFFFFFFFF AND MUL OR SWAP1 SSTORE POP CALLVALUE PUSH1 0x0 DUP2 SWAP1 SSTORE POP POP PUSH2 0x32B DUP1 PUSH2 0xDF PUSH1 0x0 CODECOPY PUSH1 0x0 RETURN STOP PUSH1 0x80 PUSH1 0x40 MSTORE PUSH1 0x4 CALLDATASIZE LT PUSH2 0x57 JUMPI PUSH1 0x0 CALLDATALOAD PUSH29 0x100000000000000000000000000000000000000000000000000000000 SWAP1 DIV PUSH4 0xFFFFFFFF AND DUP1 PUSH4 0x39F22F6B EQ PUSH2 0x5C JUMPI DUP1 PUSH4 0x3CCFD60B EQ PUSH2 0x73 JUMPI DUP1 PUSH4 0xB2FA1C9E EQ PUSH2 0x8A JUMPI JUMPDEST PUSH1 0x0 DUP1 REVERT JUMPDEST CALLVALUE DUP1 ISZERO PUSH2 0x68 JUMPI PUSH1 0x0 DUP1 REVERT JUMPDEST POP PUSH2 0x71 PUSH2 0xB9 JUMP JUMPDEST STOP JUMPDEST CALLVALUE DUP1 ISZERO PUSH2 0x7F JUMPI PUSH1 0x0 DUP1 REVERT JUMPDEST POP PUSH2 0x88 PUSH2 0x1A5 JUMP JUMPDEST STOP JUMPDEST CALLVALUE DUP1 ISZERO PUSH2 0x96 JUMPI PUSH1 0x0 DUP1 REVERT JUMPDEST POP PUSH2 0x9F PUSH2 0x2DE JUMP JUMPDEST PUSH1 0x40 MLOAD DUP1 DUP3 ISZERO ISZERO ISZERO ISZERO DUP2 MSTORE PUSH1 0x20 ADD SWAP2 POP POP PUSH1 0x40 MLOAD DUP1 SWAP2 SUB SWAP1 RETURN JUMPDEST PUSH1 0x0 PUSH1 0x2 PUSH1 0x0 SWAP1 SLOAD SWAP1 PUSH2 0x100 EXP SWAP1 DIV PUSH20 0xFFFFFFFFFFFFFFFFFFFFFFFFFFFFFFFFFFFFFFFF AND PUSH20 0xFFFFFFFFFFFFFFFFFFFFFFFFFFFFFFFFFFFFFFFF AND CALLER PUSH20 0xFFFFFFFFFFFFFFFFFFFFFFFFFFFFFFFFFFFFFFFF AND EQ ISZERO ISZERO PUSH2 0x117 JUMPI PUSH1 0x0 DUP1 REVERT JUMPDEST ADDRESS PUSH20 0xFFFFFFFFFFFFFFFFFFFFFFFFFFFFFFFFFFFFFFFF AND BALANCE PUSH1 0x0 SLOAD SUB SWAP1 POP PUSH1 0x0 DUP2 GT ISZERO ISZERO PUSH2 0x144 JUMPI PUSH1 0x0 DUP1 REVERT JUMPDEST CALLER PUSH20 0xFFFFFFFFFFFFFFFFFFFFFFFFFFFFFFFFFFFFFFFF AND PUSH2 0x8FC ADDRESS PUSH20 0xFFFFFFFFFFFFFFFFFFFFFFFFFFFFFFFFFFFFFFFF AND BALANCE SWAP1 DUP2 ISZERO MUL SWAP1 PUSH1 0x40 MLOAD PUSH1 0x0 PUSH1 0x40 MLOAD DUP1 DUP4 SUB DUP2 DUP6 DUP9 DUP9 CALL SWAP4 POP POP POP POP ISZERO DUP1 ISZERO PUSH2 0x1A1 JUMPI RETURNDATASIZE PUSH1 0x0 DUP1 RETURNDATACOPY RETURNDATASIZE PUSH1 0x0 REVERT JUMPDEST POP POP JUMP JUMPDEST PUSH1 0x1 PUSH1 0x0 SWAP1 SLOAD SWAP1 PUSH2 0x100 EXP SWAP1 DIV PUSH20 0xFFFFFFFFFFFFFFFFFFFFFFFFFFFFFFFFFFFFFFFF AND PUSH20 0xFFFFFFFFFFFFFFFFFFFFFFFFFFFFFFFFFFFFFFFF AND CALLER PUSH20 0xFFFFFFFFFFFFFFFFFFFFFFFFFFFFFFFFFFFFFFFF AND EQ ISZERO ISZERO PUSH2 0x201 JUMPI PUSH1 0x0 DUP1 REVERT JUMPDEST PUSH1 0x3 SLOAD TIMESTAMP LT ISZERO PUSH2 0x27D JUMPI CALLER PUSH20 0xFFFFFFFFFFFFFFFFFFFFFFFFFFFFFFFFFFFFFFFF AND PUSH2 0x8FC PUSH1 0xA PUSH1 0x9 ADDRESS PUSH20 0xFFFFFFFFFFFFFFFFFFFFFFFFFFFFFFFFFFFFFFFF AND BALANCE MUL DUP2 ISZERO ISZERO PUSH2 0x24B JUMPI INVALID JUMPDEST DIV SWAP1 DUP2 ISZERO MUL SWAP1 PUSH1 0x40 MLOAD PUSH1 0x0 PUSH1 0x40 MLOAD DUP1 DUP4 SUB DUP2 DUP6 DUP9 DUP9 CALL SWAP4 POP POP POP POP ISZERO DUP1 ISZERO PUSH2 0x277 JUMPI RETURNDATASIZE PUSH1 0x0 DUP1 RETURNDATACOPY RETURNDATASIZE PUSH1 0x0 REVERT JUMPDEST POP PUSH2 0x2DC JUMP JUMPDEST CALLER PUSH20 0xFFFFFFFFFFFFFFFFFFFFFFFFFFFFFFFFFFFFFFFF AND PUSH2 0x8FC ADDRESS PUSH20 0xFFFFFFFFFFFFFFFFFFFFFFFFFFFFFFFFFFFFFFFF AND BALANCE SWAP1 DUP2 ISZERO MUL SWAP1 PUSH1 0x40 MLOAD PUSH1 0x0 PUSH1 0x40 MLOAD DUP1 DUP4 SUB DUP2 DUP6 DUP9 DUP9 CALL SWAP4 POP POP POP POP ISZERO DUP1 ISZERO PUSH2 0x2DA JUMPI RETURNDATASIZE PUSH1 0x0 DUP1 RETURNDATACOPY RETURNDATASIZE PUSH1 0x0 REVERT JUMPDEST POP JUMPDEST JUMP JUMPDEST PUSH1 0x0 DUP1 ADDRESS PUSH20 0xFFFFFFFFFFFFFFFFFFFFFFFFFFFFFFFFFFFFFFFF AND BALANCE EQ SWAP1 POP SWAP1 JUMP STOP LOG1 PUSH6 0x627A7A723058 KECCAK256 0xd1 DUP7 0xc3 0xe9 PUSH25 0xBAB73A6DC0C91AC594DB2D09CF635C98F7F6181219C1C8DB42 BALANCE LOG0 STOP 0x29 "
				},
				"gasEstimates": {
					"creation": {
						"codeDepositCost": "162200",
						"executionCost": "80855",
						"totalCost": "243055"
					},
					"external": {
						"collectPenalty()": "infinite",
						"isComplete()": "669",
						"withdraw()": "infinite"
					}
				},
				"methodIdentifiers": {
					"collectPenalty()": "39f22f6b",
					"isComplete()": "b2fa1c9e",
					"withdraw()": "3ccfd60b"
				}
			},
			"userdoc": {
				"methods": {}
			}
		}
	}
}