{
	"practice/web3/CTFS/captureTheEther/math/Donation/contracts/Donation.sol": {
		"DonationChallenge": {
			"abi": [
				{
					"constant": false,
					"inputs": [],
					"name": "withdraw",
					"outputs": [],
					"payable": false,
					"stateMutability": "nonpayable",
					"type": "function"
				},
				{
					"constant": true,
					"inputs": [],
					"name": "owner",
					"outputs": [
						{
							"name": "",
							"type": "address"
						}
					],
					"payable": false,
					"stateMutability": "view",
					"type": "function"
				},
				{
					"constant": true,
					"inputs": [],
					"name": "isComplete",
					"outputs": [
						{
							"name": "",
							"type": "bool"
						}
					],
					"payable": false,
					"stateMutability": "view",
					"type": "function"
				},
				{
					"constant": false,
					"inputs": [
						{
							"name": "etherAmount",
							"type": "uint256"
						}
					],
					"name": "donate",
					"outputs": [],
					"payable": true,
					"stateMutability": "payable",
					"type": "function"
				},
				{
					"constant": true,
					"inputs": [
						{
							"name": "",
							"type": "uint256"
						}
					],
					"name": "donations",
					"outputs": [
						{
							"name": "timestamp",
							"type": "uint256"
						},
						{
							"name": "etherAmount",
							"type": "uint256"
						}
					],
					"payable": false,
					"stateMutability": "view",
					"type": "function"
				},
				{
					"inputs": [],
					"payable": true,
					"stateMutability": "payable",
					"type": "constructor"
				}
			],
			"devdoc": {
				"methods": {}
			},
			"evm": {
				"assembly": "    /* \"practice/web3/CTFS/captureTheEther/math/Donation/contracts/Donation.sol\":26:935  contract DonationChallenge {... */\n  mstore(0x40, 0x80)\n    /* \"practice/web3/CTFS/captureTheEther/math/Donation/contracts/Donation.sol\":279:286  1 ether */\n  0xde0b6b3a7640000\n    /* \"practice/web3/CTFS/captureTheEther/math/Donation/contracts/Donation.sol\":266:275  msg.value */\n  callvalue\n    /* \"practice/web3/CTFS/captureTheEther/math/Donation/contracts/Donation.sol\":266:286  msg.value == 1 ether */\n  eq\n    /* \"practice/web3/CTFS/captureTheEther/math/Donation/contracts/Donation.sol\":258:287  require(msg.value == 1 ether) */\n  iszero\n  iszero\n  tag_3\n  jumpi\n  0x0\n  dup1\n  revert\ntag_3:\n    /* \"practice/web3/CTFS/captureTheEther/math/Donation/contracts/Donation.sol\":314:324  msg.sender */\n  caller\n    /* \"practice/web3/CTFS/captureTheEther/math/Donation/contracts/Donation.sol\":306:311  owner */\n  0x1\n  0x0\n    /* \"practice/web3/CTFS/captureTheEther/math/Donation/contracts/Donation.sol\":306:324  owner = msg.sender */\n  0x100\n  exp\n  dup2\n  sload\n  dup2\n  0xffffffffffffffffffffffffffffffffffffffff\n  mul\n  not\n  and\n  swap1\n  dup4\n  0xffffffffffffffffffffffffffffffffffffffff\n  and\n  mul\n  or\n  swap1\n  sstore\n  pop\n    /* \"practice/web3/CTFS/captureTheEther/math/Donation/contracts/Donation.sol\":26:935  contract DonationChallenge {... */\n  dataSize(sub_0)\n  dup1\n  dataOffset(sub_0)\n  0x0\n  codecopy\n  0x0\n  return\nstop\n\nsub_0: assembly {\n        /* \"practice/web3/CTFS/captureTheEther/math/Donation/contracts/Donation.sol\":26:935  contract DonationChallenge {... */\n      mstore(0x40, 0x80)\n      jumpi(tag_1, lt(calldatasize, 0x4))\n      calldataload(0x0)\n      0x100000000000000000000000000000000000000000000000000000000\n      swap1\n      div\n      0xffffffff\n      and\n      dup1\n      0x3ccfd60b\n      eq\n      tag_2\n      jumpi\n      dup1\n      0x8da5cb5b\n      eq\n      tag_3\n      jumpi\n      dup1\n      0xb2fa1c9e\n      eq\n      tag_4\n      jumpi\n      dup1\n      0xf14faf6f\n      eq\n      tag_5\n      jumpi\n      dup1\n      0xf8626af8\n      eq\n      tag_6\n      jumpi\n    tag_1:\n      0x0\n      dup1\n      revert\n        /* \"practice/web3/CTFS/captureTheEther/math/Donation/contracts/Donation.sol\":800:933  function withdraw() public {... */\n    tag_2:\n      callvalue\n        /* \"--CODEGEN--\":8:17   */\n      dup1\n        /* \"--CODEGEN--\":5:7   */\n      iszero\n      tag_7\n      jumpi\n        /* \"--CODEGEN--\":30:31   */\n      0x0\n        /* \"--CODEGEN--\":27:28   */\n      dup1\n        /* \"--CODEGEN--\":20:32   */\n      revert\n        /* \"--CODEGEN--\":5:7   */\n    tag_7:\n        /* \"practice/web3/CTFS/captureTheEther/math/Donation/contracts/Donation.sol\":800:933  function withdraw() public {... */\n      pop\n      tag_8\n      jump(tag_9)\n    tag_8:\n      stop\n        /* \"practice/web3/CTFS/captureTheEther/math/Donation/contracts/Donation.sol\":177:197  address public owner */\n    tag_3:\n      callvalue\n        /* \"--CODEGEN--\":8:17   */\n      dup1\n        /* \"--CODEGEN--\":5:7   */\n      iszero\n      tag_10\n      jumpi\n        /* \"--CODEGEN--\":30:31   */\n      0x0\n        /* \"--CODEGEN--\":27:28   */\n      dup1\n        /* \"--CODEGEN--\":20:32   */\n      revert\n        /* \"--CODEGEN--\":5:7   */\n    tag_10:\n        /* \"practice/web3/CTFS/captureTheEther/math/Donation/contracts/Donation.sol\":177:197  address public owner */\n      pop\n      tag_11\n      jump(tag_12)\n    tag_11:\n      mload(0x40)\n      dup1\n      dup3\n      0xffffffffffffffffffffffffffffffffffffffff\n      and\n      0xffffffffffffffffffffffffffffffffffffffff\n      and\n      dup2\n      mstore\n      0x20\n      add\n      swap2\n      pop\n      pop\n      mload(0x40)\n      dup1\n      swap2\n      sub\n      swap1\n      return\n        /* \"practice/web3/CTFS/captureTheEther/math/Donation/contracts/Donation.sol\":341:440  function isComplete() public view returns (bool) {... */\n    tag_4:\n      callvalue\n        /* \"--CODEGEN--\":8:17   */\n      dup1\n        /* \"--CODEGEN--\":5:7   */\n      iszero\n      tag_13\n      jumpi\n        /* \"--CODEGEN--\":30:31   */\n      0x0\n        /* \"--CODEGEN--\":27:28   */\n      dup1\n        /* \"--CODEGEN--\":20:32   */\n      revert\n        /* \"--CODEGEN--\":5:7   */\n    tag_13:\n        /* \"practice/web3/CTFS/captureTheEther/math/Donation/contracts/Donation.sol\":341:440  function isComplete() public view returns (bool) {... */\n      pop\n      tag_14\n      jump(tag_15)\n    tag_14:\n      mload(0x40)\n      dup1\n      dup3\n      iszero\n      iszero\n      iszero\n      iszero\n      dup2\n      mstore\n      0x20\n      add\n      swap2\n      pop\n      pop\n      mload(0x40)\n      dup1\n      swap2\n      sub\n      swap1\n      return\n        /* \"practice/web3/CTFS/captureTheEther/math/Donation/contracts/Donation.sol\":446:794  function donate(uint256 etherAmount) public payable {... */\n    tag_5:\n      tag_16\n      0x4\n      dup1\n      calldatasize\n      sub\n      dup2\n      add\n      swap1\n      dup1\n      dup1\n      calldataload\n      swap1\n      0x20\n      add\n      swap1\n      swap3\n      swap2\n      swap1\n      pop\n      pop\n      pop\n      jump(tag_17)\n    tag_16:\n      stop\n        /* \"practice/web3/CTFS/captureTheEther/math/Donation/contracts/Donation.sol\":143:170  Donation[] public donations */\n    tag_6:\n      callvalue\n        /* \"--CODEGEN--\":8:17   */\n      dup1\n        /* \"--CODEGEN--\":5:7   */\n      iszero\n      tag_18\n      jumpi\n        /* \"--CODEGEN--\":30:31   */\n      0x0\n        /* \"--CODEGEN--\":27:28   */\n      dup1\n        /* \"--CODEGEN--\":20:32   */\n      revert\n        /* \"--CODEGEN--\":5:7   */\n    tag_18:\n        /* \"practice/web3/CTFS/captureTheEther/math/Donation/contracts/Donation.sol\":143:170  Donation[] public donations */\n      pop\n      tag_19\n      0x4\n      dup1\n      calldatasize\n      sub\n      dup2\n      add\n      swap1\n      dup1\n      dup1\n      calldataload\n      swap1\n      0x20\n      add\n      swap1\n      swap3\n      swap2\n      swap1\n      pop\n      pop\n      pop\n      jump(tag_20)\n    tag_19:\n      mload(0x40)\n      dup1\n      dup4\n      dup2\n      mstore\n      0x20\n      add\n      dup3\n      dup2\n      mstore\n      0x20\n      add\n      swap3\n      pop\n      pop\n      pop\n      mload(0x40)\n      dup1\n      swap2\n      sub\n      swap1\n      return\n        /* \"practice/web3/CTFS/captureTheEther/math/Donation/contracts/Donation.sol\":800:933  function withdraw() public {... */\n    tag_9:\n        /* \"practice/web3/CTFS/captureTheEther/math/Donation/contracts/Donation.sol\":859:864  owner */\n      0x1\n      0x0\n      swap1\n      sload\n      swap1\n      0x100\n      exp\n      swap1\n      div\n      0xffffffffffffffffffffffffffffffffffffffff\n      and\n        /* \"practice/web3/CTFS/captureTheEther/math/Donation/contracts/Donation.sol\":845:864  msg.sender == owner */\n      0xffffffffffffffffffffffffffffffffffffffff\n      and\n        /* \"practice/web3/CTFS/captureTheEther/math/Donation/contracts/Donation.sol\":845:855  msg.sender */\n      caller\n        /* \"practice/web3/CTFS/captureTheEther/math/Donation/contracts/Donation.sol\":845:864  msg.sender == owner */\n      0xffffffffffffffffffffffffffffffffffffffff\n      and\n      eq\n        /* \"practice/web3/CTFS/captureTheEther/math/Donation/contracts/Donation.sol\":837:865  require(msg.sender == owner) */\n      iszero\n      iszero\n      tag_22\n      jumpi\n      0x0\n      dup1\n      revert\n    tag_22:\n        /* \"practice/web3/CTFS/captureTheEther/math/Donation/contracts/Donation.sol\":884:894  msg.sender */\n      caller\n        /* \"practice/web3/CTFS/captureTheEther/math/Donation/contracts/Donation.sol\":884:903  msg.sender.transfer */\n      0xffffffffffffffffffffffffffffffffffffffff\n      and\n        /* \"practice/web3/CTFS/captureTheEther/math/Donation/contracts/Donation.sol\":884:926  msg.sender.transfer(address(this).balance) */\n      0x8fc\n        /* \"practice/web3/CTFS/captureTheEther/math/Donation/contracts/Donation.sol\":912:916  this */\n      address\n        /* \"practice/web3/CTFS/captureTheEther/math/Donation/contracts/Donation.sol\":904:925  address(this).balance */\n      0xffffffffffffffffffffffffffffffffffffffff\n      and\n      balance\n        /* \"practice/web3/CTFS/captureTheEther/math/Donation/contracts/Donation.sol\":884:926  msg.sender.transfer(address(this).balance) */\n      swap1\n      dup2\n      iszero\n      mul\n      swap1\n      mload(0x40)\n      0x0\n      mload(0x40)\n      dup1\n      dup4\n      sub\n      dup2\n      dup6\n      dup9\n      dup9\n      call\n      swap4\n      pop\n      pop\n      pop\n      pop\n      iszero\n        /* \"--CODEGEN--\":8:17   */\n      dup1\n        /* \"--CODEGEN--\":5:7   */\n      iszero\n      tag_23\n      jumpi\n        /* \"--CODEGEN--\":45:61   */\n      returndatasize\n        /* \"--CODEGEN--\":42:43   */\n      0x0\n        /* \"--CODEGEN--\":39:40   */\n      dup1\n        /* \"--CODEGEN--\":24:62   */\n      returndatacopy\n        /* \"--CODEGEN--\":77:93   */\n      returndatasize\n        /* \"--CODEGEN--\":74:75   */\n      0x0\n        /* \"--CODEGEN--\":67:94   */\n      revert\n        /* \"--CODEGEN--\":5:7   */\n    tag_23:\n        /* \"practice/web3/CTFS/captureTheEther/math/Donation/contracts/Donation.sol\":884:926  msg.sender.transfer(address(this).balance) */\n      pop\n        /* \"practice/web3/CTFS/captureTheEther/math/Donation/contracts/Donation.sol\":800:933  function withdraw() public {... */\n      jump\t// out\n        /* \"practice/web3/CTFS/captureTheEther/math/Donation/contracts/Donation.sol\":177:197  address public owner */\n    tag_12:\n      0x1\n      0x0\n      swap1\n      sload\n      swap1\n      0x100\n      exp\n      swap1\n      div\n      0xffffffffffffffffffffffffffffffffffffffff\n      and\n      dup2\n      jump\t// out\n        /* \"practice/web3/CTFS/captureTheEther/math/Donation/contracts/Donation.sol\":341:440  function isComplete() public view returns (bool) {... */\n    tag_15:\n        /* \"practice/web3/CTFS/captureTheEther/math/Donation/contracts/Donation.sol\":384:388  bool */\n      0x0\n        /* \"practice/web3/CTFS/captureTheEther/math/Donation/contracts/Donation.sol\":432:433  0 */\n      dup1\n        /* \"practice/web3/CTFS/captureTheEther/math/Donation/contracts/Donation.sol\":415:419  this */\n      address\n        /* \"practice/web3/CTFS/captureTheEther/math/Donation/contracts/Donation.sol\":407:428  address(this).balance */\n      0xffffffffffffffffffffffffffffffffffffffff\n      and\n      balance\n        /* \"practice/web3/CTFS/captureTheEther/math/Donation/contracts/Donation.sol\":407:433  address(this).balance == 0 */\n      eq\n        /* \"practice/web3/CTFS/captureTheEther/math/Donation/contracts/Donation.sol\":400:433  return address(this).balance == 0 */\n      swap1\n      pop\n        /* \"practice/web3/CTFS/captureTheEther/math/Donation/contracts/Donation.sol\":341:440  function isComplete() public view returns (bool) {... */\n      swap1\n      jump\t// out\n        /* \"practice/web3/CTFS/captureTheEther/math/Donation/contracts/Donation.sol\":446:794  function donate(uint256 etherAmount) public payable {... */\n    tag_17:\n        /* \"practice/web3/CTFS/captureTheEther/math/Donation/contracts/Donation.sol\":563:576  uint256 scale */\n      0x0\n        /* \"practice/web3/CTFS/captureTheEther/math/Donation/contracts/Donation.sol\":657:674  Donation donation */\n      dup1\n        /* \"practice/web3/CTFS/captureTheEther/math/Donation/contracts/Donation.sol\":579:595  10**18 * 1 ether */\n      0xc097ce7bc90715b34b9f1000000000\n        /* \"practice/web3/CTFS/captureTheEther/math/Donation/contracts/Donation.sol\":563:595  uint256 scale = 10**18 * 1 ether */\n      swap2\n      pop\n        /* \"practice/web3/CTFS/captureTheEther/math/Donation/contracts/Donation.sol\":640:645  scale */\n      dup2\n        /* \"practice/web3/CTFS/captureTheEther/math/Donation/contracts/Donation.sol\":626:637  etherAmount */\n      dup4\n        /* \"practice/web3/CTFS/captureTheEther/math/Donation/contracts/Donation.sol\":626:645  etherAmount / scale */\n      dup2\n      iszero\n      iszero\n      tag_26\n      jumpi\n      invalid\n    tag_26:\n      div\n        /* \"practice/web3/CTFS/captureTheEther/math/Donation/contracts/Donation.sol\":613:622  msg.value */\n      callvalue\n        /* \"practice/web3/CTFS/captureTheEther/math/Donation/contracts/Donation.sol\":613:645  msg.value == etherAmount / scale */\n      eq\n        /* \"practice/web3/CTFS/captureTheEther/math/Donation/contracts/Donation.sol\":605:646  require(msg.value == etherAmount / scale) */\n      iszero\n      iszero\n      tag_27\n      jumpi\n      0x0\n      dup1\n      revert\n    tag_27:\n        /* \"practice/web3/CTFS/captureTheEther/math/Donation/contracts/Donation.sol\":705:708  now */\n      timestamp\n        /* \"practice/web3/CTFS/captureTheEther/math/Donation/contracts/Donation.sol\":684:692  donation */\n      dup2\n        /* \"practice/web3/CTFS/captureTheEther/math/Donation/contracts/Donation.sol\":684:702  donation.timestamp */\n      0x0\n      add\n        /* \"practice/web3/CTFS/captureTheEther/math/Donation/contracts/Donation.sol\":684:708  donation.timestamp = now */\n      dup2\n      swap1\n      sstore\n      pop\n        /* \"practice/web3/CTFS/captureTheEther/math/Donation/contracts/Donation.sol\":741:752  etherAmount */\n      dup3\n        /* \"practice/web3/CTFS/captureTheEther/math/Donation/contracts/Donation.sol\":718:726  donation */\n      dup2\n        /* \"practice/web3/CTFS/captureTheEther/math/Donation/contracts/Donation.sol\":718:738  donation.etherAmount */\n      0x1\n      add\n        /* \"practice/web3/CTFS/captureTheEther/math/Donation/contracts/Donation.sol\":718:752  donation.etherAmount = etherAmount */\n      dup2\n      swap1\n      sstore\n      pop\n        /* \"practice/web3/CTFS/captureTheEther/math/Donation/contracts/Donation.sol\":763:772  donations */\n      0x0\n        /* \"practice/web3/CTFS/captureTheEther/math/Donation/contracts/Donation.sol\":778:786  donation */\n      dup2\n        /* \"practice/web3/CTFS/captureTheEther/math/Donation/contracts/Donation.sol\":763:787  donations.push(donation) */\n      swap1\n      dup1\n        /* \"--CODEGEN--\":39:40   */\n      0x1\n        /* \"--CODEGEN--\":33:36   */\n      dup2\n        /* \"--CODEGEN--\":27:37   */\n      sload\n        /* \"--CODEGEN--\":23:41   */\n      add\n        /* \"--CODEGEN--\":57:67   */\n      dup1\n        /* \"--CODEGEN--\":52:55   */\n      dup3\n        /* \"--CODEGEN--\":45:68   */\n      sstore\n        /* \"--CODEGEN--\":79:89   */\n      dup1\n        /* \"--CODEGEN--\":72:89   */\n      swap2\n      pop\n        /* \"--CODEGEN--\":0:93   */\n      pop\n        /* \"practice/web3/CTFS/captureTheEther/math/Donation/contracts/Donation.sol\":763:787  donations.push(donation) */\n      swap1\n      0x1\n      dup3\n      sub\n      swap1\n      0x0\n      mstore\n      keccak256(0x0, 0x20)\n      swap1\n      0x2\n      mul\n      add\n      0x0\n      swap1\n      swap2\n      swap3\n      swap1\n      swap2\n      swap1\n      swap2\n      pop\n      0x0\n      dup3\n      add\n      sload\n      dup2\n      0x0\n      add\n      sstore\n      0x1\n      dup3\n      add\n      sload\n      dup2\n      0x1\n      add\n      sstore\n      pop\n      pop\n      pop\n        /* \"practice/web3/CTFS/captureTheEther/math/Donation/contracts/Donation.sol\":446:794  function donate(uint256 etherAmount) public payable {... */\n      pop\n      pop\n      pop\n      jump\t// out\n        /* \"practice/web3/CTFS/captureTheEther/math/Donation/contracts/Donation.sol\":143:170  Donation[] public donations */\n    tag_20:\n      0x0\n      dup2\n      dup2\n      sload\n      dup2\n      lt\n      iszero\n      iszero\n      tag_29\n      jumpi\n      invalid\n    tag_29:\n      swap1\n      0x0\n      mstore\n      keccak256(0x0, 0x20)\n      swap1\n      0x2\n      mul\n      add\n      0x0\n      swap2\n      pop\n      swap1\n      pop\n      dup1\n      0x0\n      add\n      sload\n      swap1\n      dup1\n      0x1\n      add\n      sload\n      swap1\n      pop\n      dup3\n      jump\t// out\n\n    auxdata: 0xa165627a7a72305820592ee2452540daed7fbc49705ec2221824d380393f8dc96aa9d800084e6073330029\n}\n",
				"bytecode": {
					"linkReferences": {},
					"object": "6080604052670de0b6b3a76400003414151561001a57600080fd5b33600160006101000a81548173ffffffffffffffffffffffffffffffffffffffff021916908373ffffffffffffffffffffffffffffffffffffffff1602179055506103638061006a6000396000f30060806040526004361061006d576000357c0100000000000000000000000000000000000000000000000000000000900463ffffffff1680633ccfd60b146100725780638da5cb5b14610089578063b2fa1c9e146100e0578063f14faf6f1461010f578063f8626af81461012f575b600080fd5b34801561007e57600080fd5b50610087610177565b005b34801561009557600080fd5b5061009e610233565b604051808273ffffffffffffffffffffffffffffffffffffffff1673ffffffffffffffffffffffffffffffffffffffff16815260200191505060405180910390f35b3480156100ec57600080fd5b506100f5610259565b604051808215151515815260200191505060405180910390f35b61012d6004803603810190808035906020019092919050505061027a565b005b34801561013b57600080fd5b5061015a60048036038101908080359060200190929190505050610304565b604051808381526020018281526020019250505060405180910390f35b600160009054906101000a900473ffffffffffffffffffffffffffffffffffffffff1673ffffffffffffffffffffffffffffffffffffffff163373ffffffffffffffffffffffffffffffffffffffff161415156101d357600080fd5b3373ffffffffffffffffffffffffffffffffffffffff166108fc3073ffffffffffffffffffffffffffffffffffffffff16319081150290604051600060405180830381858888f19350505050158015610230573d6000803e3d6000fd5b50565b600160009054906101000a900473ffffffffffffffffffffffffffffffffffffffff1681565b6000803073ffffffffffffffffffffffffffffffffffffffff163114905090565b6000806ec097ce7bc90715b34b9f10000000009150818381151561029a57fe5b04341415156102a857600080fd5b428160000181905550828160010181905550600081908060018154018082558091505090600182039060005260206000209060020201600090919290919091506000820154816000015560018201548160010155505050505050565b60008181548110151561031357fe5b906000526020600020906002020160009150905080600001549080600101549050825600a165627a7a72305820592ee2452540daed7fbc49705ec2221824d380393f8dc96aa9d800084e6073330029",
					"opcodes": "PUSH1 0x80 PUSH1 0x40 MSTORE PUSH8 0xDE0B6B3A7640000 CALLVALUE EQ ISZERO ISZERO PUSH2 0x1A JUMPI PUSH1 0x0 DUP1 REVERT JUMPDEST CALLER PUSH1 0x1 PUSH1 0x0 PUSH2 0x100 EXP DUP2 SLOAD DUP2 PUSH20 0xFFFFFFFFFFFFFFFFFFFFFFFFFFFFFFFFFFFFFFFF MUL NOT AND SWAP1 DUP4 PUSH20 0xFFFFFFFFFFFFFFFFFFFFFFFFFFFFFFFFFFFFFFFF AND MUL OR SWAP1 SSTORE POP PUSH2 0x363 DUP1 PUSH2 0x6A PUSH1 0x0 CODECOPY PUSH1 0x0 RETURN STOP PUSH1 0x80 PUSH1 0x40 MSTORE PUSH1 0x4 CALLDATASIZE LT PUSH2 0x6D JUMPI PUSH1 0x0 CALLDATALOAD PUSH29 0x100000000000000000000000000000000000000000000000000000000 SWAP1 DIV PUSH4 0xFFFFFFFF AND DUP1 PUSH4 0x3CCFD60B EQ PUSH2 0x72 JUMPI DUP1 PUSH4 0x8DA5CB5B EQ PUSH2 0x89 JUMPI DUP1 PUSH4 0xB2FA1C9E EQ PUSH2 0xE0 JUMPI DUP1 PUSH4 0xF14FAF6F EQ PUSH2 0x10F JUMPI DUP1 PUSH4 0xF8626AF8 EQ PUSH2 0x12F JUMPI JUMPDEST PUSH1 0x0 DUP1 REVERT JUMPDEST CALLVALUE DUP1 ISZERO PUSH2 0x7E JUMPI PUSH1 0x0 DUP1 REVERT JUMPDEST POP PUSH2 0x87 PUSH2 0x177 JUMP JUMPDEST STOP JUMPDEST CALLVALUE DUP1 ISZERO PUSH2 0x95 JUMPI PUSH1 0x0 DUP1 REVERT JUMPDEST POP PUSH2 0x9E PUSH2 0x233 JUMP JUMPDEST PUSH1 0x40 MLOAD DUP1 DUP3 PUSH20 0xFFFFFFFFFFFFFFFFFFFFFFFFFFFFFFFFFFFFFFFF AND PUSH20 0xFFFFFFFFFFFFFFFFFFFFFFFFFFFFFFFFFFFFFFFF AND DUP2 MSTORE PUSH1 0x20 ADD SWAP2 POP POP PUSH1 0x40 MLOAD DUP1 SWAP2 SUB SWAP1 RETURN JUMPDEST CALLVALUE DUP1 ISZERO PUSH2 0xEC JUMPI PUSH1 0x0 DUP1 REVERT JUMPDEST POP PUSH2 0xF5 PUSH2 0x259 JUMP JUMPDEST PUSH1 0x40 MLOAD DUP1 DUP3 ISZERO ISZERO ISZERO ISZERO DUP2 MSTORE PUSH1 0x20 ADD SWAP2 POP POP PUSH1 0x40 MLOAD DUP1 SWAP2 SUB SWAP1 RETURN JUMPDEST PUSH2 0x12D PUSH1 0x4 DUP1 CALLDATASIZE SUB DUP2 ADD SWAP1 DUP1 DUP1 CALLDATALOAD SWAP1 PUSH1 0x20 ADD SWAP1 SWAP3 SWAP2 SWAP1 POP POP POP PUSH2 0x27A JUMP JUMPDEST STOP JUMPDEST CALLVALUE DUP1 ISZERO PUSH2 0x13B JUMPI PUSH1 0x0 DUP1 REVERT JUMPDEST POP PUSH2 0x15A PUSH1 0x4 DUP1 CALLDATASIZE SUB DUP2 ADD SWAP1 DUP1 DUP1 CALLDATALOAD SWAP1 PUSH1 0x20 ADD SWAP1 SWAP3 SWAP2 SWAP1 POP POP POP PUSH2 0x304 JUMP JUMPDEST PUSH1 0x40 MLOAD DUP1 DUP4 DUP2 MSTORE PUSH1 0x20 ADD DUP3 DUP2 MSTORE PUSH1 0x20 ADD SWAP3 POP POP POP PUSH1 0x40 MLOAD DUP1 SWAP2 SUB SWAP1 RETURN JUMPDEST PUSH1 0x1 PUSH1 0x0 SWAP1 SLOAD SWAP1 PUSH2 0x100 EXP SWAP1 DIV PUSH20 0xFFFFFFFFFFFFFFFFFFFFFFFFFFFFFFFFFFFFFFFF AND PUSH20 0xFFFFFFFFFFFFFFFFFFFFFFFFFFFFFFFFFFFFFFFF AND CALLER PUSH20 0xFFFFFFFFFFFFFFFFFFFFFFFFFFFFFFFFFFFFFFFF AND EQ ISZERO ISZERO PUSH2 0x1D3 JUMPI PUSH1 0x0 DUP1 REVERT JUMPDEST CALLER PUSH20 0xFFFFFFFFFFFFFFFFFFFFFFFFFFFFFFFFFFFFFFFF AND PUSH2 0x8FC ADDRESS PUSH20 0xFFFFFFFFFFFFFFFFFFFFFFFFFFFFFFFFFFFFFFFF AND BALANCE SWAP1 DUP2 ISZERO MUL SWAP1 PUSH1 0x40 MLOAD PUSH1 0x0 PUSH1 0x40 MLOAD DUP1 DUP4 SUB DUP2 DUP6 DUP9 DUP9 CALL SWAP4 POP POP POP POP ISZERO DUP1 ISZERO PUSH2 0x230 JUMPI RETURNDATASIZE PUSH1 0x0 DUP1 RETURNDATACOPY RETURNDATASIZE PUSH1 0x0 REVERT JUMPDEST POP JUMP JUMPDEST PUSH1 0x1 PUSH1 0x0 SWAP1 SLOAD SWAP1 PUSH2 0x100 EXP SWAP1 DIV PUSH20 0xFFFFFFFFFFFFFFFFFFFFFFFFFFFFFFFFFFFFFFFF AND DUP2 JUMP JUMPDEST PUSH1 0x0 DUP1 ADDRESS PUSH20 0xFFFFFFFFFFFFFFFFFFFFFFFFFFFFFFFFFFFFFFFF AND BALANCE EQ SWAP1 POP SWAP1 JUMP JUMPDEST PUSH1 0x0 DUP1 PUSH15 0xC097CE7BC90715B34B9F1000000000 SWAP2 POP DUP2 DUP4 DUP2 ISZERO ISZERO PUSH2 0x29A JUMPI INVALID JUMPDEST DIV CALLVALUE EQ ISZERO ISZERO PUSH2 0x2A8 JUMPI PUSH1 0x0 DUP1 REVERT JUMPDEST TIMESTAMP DUP2 PUSH1 0x0 ADD DUP2 SWAP1 SSTORE POP DUP3 DUP2 PUSH1 0x1 ADD DUP2 SWAP1 SSTORE POP PUSH1 0x0 DUP2 SWAP1 DUP1 PUSH1 0x1 DUP2 SLOAD ADD DUP1 DUP3 SSTORE DUP1 SWAP2 POP POP SWAP1 PUSH1 0x1 DUP3 SUB SWAP1 PUSH1 0x0 MSTORE PUSH1 0x20 PUSH1 0x0 KECCAK256 SWAP1 PUSH1 0x2 MUL ADD PUSH1 0x0 SWAP1 SWAP2 SWAP3 SWAP1 SWAP2 SWAP1 SWAP2 POP PUSH1 0x0 DUP3 ADD SLOAD DUP2 PUSH1 0x0 ADD SSTORE PUSH1 0x1 DUP3 ADD SLOAD DUP2 PUSH1 0x1 ADD SSTORE POP POP POP POP POP POP JUMP JUMPDEST PUSH1 0x0 DUP2 DUP2 SLOAD DUP2 LT ISZERO ISZERO PUSH2 0x313 JUMPI INVALID JUMPDEST SWAP1 PUSH1 0x0 MSTORE PUSH1 0x20 PUSH1 0x0 KECCAK256 SWAP1 PUSH1 0x2 MUL ADD PUSH1 0x0 SWAP2 POP SWAP1 POP DUP1 PUSH1 0x0 ADD SLOAD SWAP1 DUP1 PUSH1 0x1 ADD SLOAD SWAP1 POP DUP3 JUMP STOP LOG1 PUSH6 0x627A7A723058 KECCAK256 MSIZE 0x2e 0xe2 GASLIMIT 0x25 BLOCKHASH 0xda 0xed PUSH32 0xBC49705EC2221824D380393F8DC96AA9D800084E607333002900000000000000 "
				},
				"gasEstimates": {
					"creation": {
						"codeDepositCost": "173400",
						"executionCost": "20490",
						"totalCost": "193890"
					},
					"external": {
						"donate(uint256)": "101131",
						"donations(uint256)": "1094",
						"isComplete()": "669",
						"owner()": "464",
						"withdraw()": "infinite"
					}
				},
				"methodIdentifiers": {
					"donate(uint256)": "f14faf6f",
					"donations(uint256)": "f8626af8",
					"isComplete()": "b2fa1c9e",
					"owner()": "8da5cb5b",
					"withdraw()": "3ccfd60b"
				}
			},
			"userdoc": {
				"methods": {}
			}
		}
	}
}